{
  "_format": "hh-sol-artifact-1",
  "contractName": "PropertyMinter",
  "sourceName": "contracts/PropertyMinter.sol",
  "abi": [
    {
      "inputs": [
        {
          "internalType": "address[]",
          "name": "notaries",
          "type": "address[]"
        }
      ],
      "stateMutability": "nonpayable",
      "type": "constructor"
    },
    {
      "anonymous": false,
      "inputs": [
        {
          "indexed": true,
          "internalType": "address",
          "name": "owner",
          "type": "address"
        },
        {
          "indexed": true,
          "internalType": "address",
          "name": "approved",
          "type": "address"
        },
        {
          "indexed": true,
          "internalType": "uint256",
          "name": "tokenId",
          "type": "uint256"
        }
      ],
      "name": "Approval",
      "type": "event"
    },
    {
      "anonymous": false,
      "inputs": [
        {
          "indexed": true,
          "internalType": "address",
          "name": "owner",
          "type": "address"
        },
        {
          "indexed": true,
          "internalType": "address",
          "name": "operator",
          "type": "address"
        },
        {
          "indexed": false,
          "internalType": "bool",
          "name": "approved",
          "type": "bool"
        }
      ],
      "name": "ApprovalForAll",
      "type": "event"
    },
    {
      "anonymous": false,
      "inputs": [
        {
          "indexed": true,
          "internalType": "address",
          "name": "previousOwner",
          "type": "address"
        },
        {
          "indexed": true,
          "internalType": "address",
          "name": "newOwner",
          "type": "address"
        }
      ],
      "name": "OwnershipTransferred",
      "type": "event"
    },
    {
      "anonymous": false,
      "inputs": [
        {
          "indexed": true,
          "internalType": "bytes32",
          "name": "role",
          "type": "bytes32"
        },
        {
          "indexed": true,
          "internalType": "bytes32",
          "name": "previousAdminRole",
          "type": "bytes32"
        },
        {
          "indexed": true,
          "internalType": "bytes32",
          "name": "newAdminRole",
          "type": "bytes32"
        }
      ],
      "name": "RoleAdminChanged",
      "type": "event"
    },
    {
      "anonymous": false,
      "inputs": [
        {
          "indexed": true,
          "internalType": "bytes32",
          "name": "role",
          "type": "bytes32"
        },
        {
          "indexed": true,
          "internalType": "address",
          "name": "account",
          "type": "address"
        },
        {
          "indexed": true,
          "internalType": "address",
          "name": "sender",
          "type": "address"
        }
      ],
      "name": "RoleGranted",
      "type": "event"
    },
    {
      "anonymous": false,
      "inputs": [
        {
          "indexed": true,
          "internalType": "bytes32",
          "name": "role",
          "type": "bytes32"
        },
        {
          "indexed": true,
          "internalType": "address",
          "name": "account",
          "type": "address"
        },
        {
          "indexed": true,
          "internalType": "address",
          "name": "sender",
          "type": "address"
        }
      ],
      "name": "RoleRevoked",
      "type": "event"
    },
    {
      "anonymous": false,
      "inputs": [
        {
          "indexed": true,
          "internalType": "address",
          "name": "from",
          "type": "address"
        },
        {
          "indexed": true,
          "internalType": "address",
          "name": "to",
          "type": "address"
        },
        {
          "indexed": true,
          "internalType": "uint256",
          "name": "tokenId",
          "type": "uint256"
        }
      ],
      "name": "Transfer",
      "type": "event"
    },
    {
      "inputs": [],
      "name": "DEFAULT_ADMIN_ROLE",
      "outputs": [
        {
          "internalType": "bytes32",
          "name": "",
          "type": "bytes32"
        }
      ],
      "stateMutability": "view",
      "type": "function"
    },
    {
      "inputs": [
        {
          "internalType": "address",
          "name": "_addressX",
          "type": "address"
        }
      ],
      "name": "GetUserProperties",
      "outputs": [
        {
          "components": [
            {
              "internalType": "uint256",
              "name": "date",
              "type": "uint256"
            },
            {
              "internalType": "string",
              "name": "owner",
              "type": "string"
            },
            {
              "internalType": "string",
              "name": "previousOwner",
              "type": "string"
            },
            {
              "internalType": "string",
              "name": "ownerContact",
              "type": "string"
            },
            {
              "internalType": "string",
              "name": "propertyAddress",
              "type": "string"
            },
            {
              "internalType": "string",
              "name": "PIN",
              "type": "string"
            },
            {
              "internalType": "enum PropertyMinter.Status",
              "name": "status",
              "type": "uint8"
            },
            {
              "internalType": "uint256",
              "name": "tokenId",
              "type": "uint256"
            }
          ],
          "internalType": "struct PropertyMinter.PropertyStruct[]",
          "name": "propertyStructsUser",
          "type": "tuple[]"
        }
      ],
      "stateMutability": "view",
      "type": "function"
    },
    {
      "inputs": [],
      "name": "NOTARY_ROLE",
      "outputs": [
        {
          "internalType": "bytes32",
          "name": "",
          "type": "bytes32"
        }
      ],
      "stateMutability": "view",
      "type": "function"
    },
    {
      "inputs": [
        {
          "internalType": "string",
          "name": "",
          "type": "string"
        },
        {
          "internalType": "uint256",
          "name": "",
          "type": "uint256"
        }
      ],
      "name": "UserProperties",
      "outputs": [
        {
          "internalType": "uint256",
          "name": "date",
          "type": "uint256"
        },
        {
          "internalType": "string",
          "name": "owner",
          "type": "string"
        },
        {
          "internalType": "string",
          "name": "previousOwner",
          "type": "string"
        },
        {
          "internalType": "string",
          "name": "ownerContact",
          "type": "string"
        },
        {
          "internalType": "string",
          "name": "propertyAddress",
          "type": "string"
        },
        {
          "internalType": "string",
          "name": "PIN",
          "type": "string"
        },
        {
          "internalType": "enum PropertyMinter.Status",
          "name": "status",
          "type": "uint8"
        },
        {
          "internalType": "uint256",
          "name": "tokenId",
          "type": "uint256"
        }
      ],
      "stateMutability": "view",
      "type": "function"
    },
    {
      "inputs": [
        {
          "internalType": "address",
          "name": "_newNotary",
          "type": "address"
        }
      ],
      "name": "addNotary",
      "outputs": [],
      "stateMutability": "nonpayable",
      "type": "function"
    },
    {
      "inputs": [
        {
          "internalType": "address",
          "name": "to",
          "type": "address"
        },
        {
          "internalType": "uint256",
          "name": "tokenId",
          "type": "uint256"
        }
      ],
      "name": "approve",
      "outputs": [],
      "stateMutability": "nonpayable",
      "type": "function"
    },
    {
      "inputs": [],
      "name": "arrayLength",
      "outputs": [
        {
          "internalType": "uint256",
          "name": "",
          "type": "uint256"
        }
      ],
      "stateMutability": "view",
      "type": "function"
    },
    {
      "inputs": [
        {
          "internalType": "address",
          "name": "owner",
          "type": "address"
        }
      ],
      "name": "balanceOf",
      "outputs": [
        {
          "internalType": "uint256",
          "name": "",
          "type": "uint256"
        }
      ],
      "stateMutability": "view",
      "type": "function"
    },
    {
      "inputs": [
        {
          "internalType": "uint256",
          "name": "_tokenId",
          "type": "uint256"
        }
      ],
      "name": "burn",
      "outputs": [],
      "stateMutability": "nonpayable",
      "type": "function"
    },
    {
      "inputs": [
        {
          "internalType": "uint256",
          "name": "tokenId",
          "type": "uint256"
        }
      ],
      "name": "getApproved",
      "outputs": [
        {
          "internalType": "address",
          "name": "",
          "type": "address"
        }
      ],
      "stateMutability": "view",
      "type": "function"
    },
    {
      "inputs": [
        {
          "internalType": "bytes32",
          "name": "role",
          "type": "bytes32"
        }
      ],
      "name": "getRoleAdmin",
      "outputs": [
        {
          "internalType": "bytes32",
          "name": "",
          "type": "bytes32"
        }
      ],
      "stateMutability": "view",
      "type": "function"
    },
    {
      "inputs": [
        {
          "internalType": "bytes32",
          "name": "role",
          "type": "bytes32"
        },
        {
          "internalType": "address",
          "name": "account",
          "type": "address"
        }
      ],
      "name": "grantRole",
      "outputs": [],
      "stateMutability": "nonpayable",
      "type": "function"
    },
    {
      "inputs": [
        {
          "internalType": "bytes32",
          "name": "role",
          "type": "bytes32"
        },
        {
          "internalType": "address",
          "name": "account",
          "type": "address"
        }
      ],
      "name": "hasRole",
      "outputs": [
        {
          "internalType": "bool",
          "name": "",
          "type": "bool"
        }
      ],
      "stateMutability": "view",
      "type": "function"
    },
    {
      "inputs": [
        {
          "internalType": "address",
          "name": "owner",
          "type": "address"
        },
        {
          "internalType": "address",
          "name": "operator",
          "type": "address"
        }
      ],
      "name": "isApprovedForAll",
      "outputs": [
        {
          "internalType": "bool",
          "name": "",
          "type": "bool"
        }
      ],
      "stateMutability": "view",
      "type": "function"
    },
    {
      "inputs": [
        {
          "internalType": "string",
          "name": "_tokenURI",
          "type": "string"
        },
        {
          "internalType": "address",
          "name": "_to",
          "type": "address"
        },
        {
          "internalType": "uint256",
          "name": "_date",
          "type": "uint256"
        },
        {
          "internalType": "string",
          "name": "_owner",
          "type": "string"
        },
        {
          "internalType": "string",
          "name": "_previousOwner",
          "type": "string"
        },
        {
          "internalType": "string",
          "name": "_ownerContact",
          "type": "string"
        },
        {
          "internalType": "string",
          "name": "_propertyAddress",
          "type": "string"
        },
        {
          "internalType": "string",
          "name": "_PIN",
          "type": "string"
        }
      ],
      "name": "mint",
      "outputs": [
        {
          "internalType": "uint256",
          "name": "",
          "type": "uint256"
        }
      ],
      "stateMutability": "nonpayable",
      "type": "function"
    },
    {
      "inputs": [],
      "name": "name",
      "outputs": [
        {
          "internalType": "string",
          "name": "",
          "type": "string"
        }
      ],
      "stateMutability": "view",
      "type": "function"
    },
    {
      "inputs": [],
      "name": "owner",
      "outputs": [
        {
          "internalType": "address",
          "name": "",
          "type": "address"
        }
      ],
      "stateMutability": "view",
      "type": "function"
    },
    {
      "inputs": [
        {
          "internalType": "uint256",
          "name": "tokenId",
          "type": "uint256"
        }
      ],
      "name": "ownerOf",
      "outputs": [
        {
          "internalType": "address",
          "name": "",
          "type": "address"
        }
      ],
      "stateMutability": "view",
      "type": "function"
    },
    {
      "inputs": [],
      "name": "propertyCounter",
      "outputs": [
        {
          "internalType": "uint256",
          "name": "",
          "type": "uint256"
        }
      ],
      "stateMutability": "view",
      "type": "function"
    },
    {
      "inputs": [],
      "name": "renounceOwnership",
      "outputs": [],
      "stateMutability": "nonpayable",
      "type": "function"
    },
    {
      "inputs": [
        {
          "internalType": "bytes32",
          "name": "role",
          "type": "bytes32"
        },
        {
          "internalType": "address",
          "name": "account",
          "type": "address"
        }
      ],
      "name": "renounceRole",
      "outputs": [],
      "stateMutability": "nonpayable",
      "type": "function"
    },
    {
      "inputs": [
        {
          "internalType": "bytes32",
          "name": "role",
          "type": "bytes32"
        },
        {
          "internalType": "address",
          "name": "account",
          "type": "address"
        }
      ],
      "name": "revokeRole",
      "outputs": [],
      "stateMutability": "nonpayable",
      "type": "function"
    },
    {
      "inputs": [
        {
          "internalType": "address",
          "name": "from",
          "type": "address"
        },
        {
          "internalType": "address",
          "name": "to",
          "type": "address"
        },
        {
          "internalType": "uint256",
          "name": "tokenId",
          "type": "uint256"
        }
      ],
      "name": "safeTransferFrom",
      "outputs": [],
      "stateMutability": "nonpayable",
      "type": "function"
    },
    {
      "inputs": [
        {
          "internalType": "address",
          "name": "from",
          "type": "address"
        },
        {
          "internalType": "address",
          "name": "to",
          "type": "address"
        },
        {
          "internalType": "uint256",
          "name": "tokenId",
          "type": "uint256"
        },
        {
          "internalType": "bytes",
          "name": "data",
          "type": "bytes"
        }
      ],
      "name": "safeTransferFrom",
      "outputs": [],
      "stateMutability": "nonpayable",
      "type": "function"
    },
    {
      "inputs": [
        {
          "internalType": "address",
          "name": "operator",
          "type": "address"
        },
        {
          "internalType": "bool",
          "name": "approved",
          "type": "bool"
        }
      ],
      "name": "setApprovalForAll",
      "outputs": [],
      "stateMutability": "nonpayable",
      "type": "function"
    },
    {
      "inputs": [
        {
          "internalType": "bytes4",
          "name": "interfaceId",
          "type": "bytes4"
        }
      ],
      "name": "supportsInterface",
      "outputs": [
        {
          "internalType": "bool",
          "name": "",
          "type": "bool"
        }
      ],
      "stateMutability": "view",
      "type": "function"
    },
    {
      "inputs": [],
      "name": "symbol",
      "outputs": [
        {
          "internalType": "string",
          "name": "",
          "type": "string"
        }
      ],
      "stateMutability": "view",
      "type": "function"
    },
    {
      "inputs": [],
      "name": "tokenName",
      "outputs": [
        {
          "internalType": "string",
          "name": "",
          "type": "string"
        }
      ],
      "stateMutability": "view",
      "type": "function"
    },
    {
      "inputs": [],
      "name": "tokenTicker",
      "outputs": [
        {
          "internalType": "string",
          "name": "",
          "type": "string"
        }
      ],
      "stateMutability": "view",
      "type": "function"
    },
    {
      "inputs": [
        {
          "internalType": "uint256",
          "name": "tokenId",
          "type": "uint256"
        }
      ],
      "name": "tokenURI",
      "outputs": [
        {
          "internalType": "string",
          "name": "",
          "type": "string"
        }
      ],
      "stateMutability": "view",
      "type": "function"
    },
    {
      "inputs": [
        {
          "internalType": "address",
          "name": "from",
          "type": "address"
        },
        {
          "internalType": "address",
          "name": "to",
          "type": "address"
        },
        {
          "internalType": "uint256",
          "name": "tokenId",
          "type": "uint256"
        }
      ],
      "name": "transferFrom",
      "outputs": [],
      "stateMutability": "nonpayable",
      "type": "function"
    },
    {
      "inputs": [
        {
          "internalType": "address",
          "name": "newOwner",
          "type": "address"
        }
      ],
      "name": "transferOwnership",
      "outputs": [],
      "stateMutability": "nonpayable",
      "type": "function"
    },
    {
      "inputs": [
        {
          "internalType": "uint256",
          "name": "",
          "type": "uint256"
        }
      ],
      "name": "userList",
      "outputs": [
        {
          "internalType": "string",
          "name": "",
          "type": "string"
        }
      ],
      "stateMutability": "view",
      "type": "function"
    }
  ],
  "bytecode": "0x60806040526040518060400160405280601381526020017f50726f706572747920446565642d20474f565400000000000000000000000000815250600a90805190602001906200005192919062000514565b506040518060400160405280600581526020017f5054594444000000000000000000000000000000000000000000000000000000815250600b90805190602001906200009f92919062000514565b50348015620000ad57600080fd5b5060405162005bba38038062005bba8339818101604052810190620000d3919062000689565b600a8054620000e29062000770565b80601f0160208091040260200160405190810160405280929190818152602001828054620001109062000770565b8015620001615780601f10620001355761010080835404028352916020019162000161565b820191906000526020600020905b8154815290600101906020018083116200014357829003601f168201915b5050505050600b8054620001759062000770565b80601f0160208091040260200160405190810160405280929190818152602001828054620001a39062000770565b8015620001f45780601f10620001c857610100808354040283529160200191620001f4565b820191906000526020600020905b815481529060010190602001808311620001d657829003601f168201915b505050505081600090805190602001906200021192919062000514565b5080600190805190602001906200022a92919062000514565b5050506200024d62000241620002d360201b60201c565b620002db60201b60201c565b600060098190555060005b8151811015620002cb5760008282815181106200027a576200027962000888565b5b60200260200101519050620002b67f014df5ee2861d7f34562399ffa112fc59b51f810d2b875c3609ba0c31ac873d082620003a160201b60201c565b5080620002c390620007dc565b905062000258565b505062000925565b600033905090565b6000600760009054906101000a900473ffffffffffffffffffffffffffffffffffffffff16905081600760006101000a81548173ffffffffffffffffffffffffffffffffffffffff021916908373ffffffffffffffffffffffffffffffffffffffff1602179055508173ffffffffffffffffffffffffffffffffffffffff168173ffffffffffffffffffffffffffffffffffffffff167f8be0079c531659141344cd1fd0a4f28419497f9722a3daafe3b4186f6b6457e060405160405180910390a35050565b620003b38282620003b760201b60201c565b5050565b620003c98282620004a960201b60201c565b620004a55760016008600084815260200190815260200160002060000160008373ffffffffffffffffffffffffffffffffffffffff1673ffffffffffffffffffffffffffffffffffffffff16815260200190815260200160002060006101000a81548160ff0219169083151502179055506200044a620002d360201b60201c565b73ffffffffffffffffffffffffffffffffffffffff168173ffffffffffffffffffffffffffffffffffffffff16837f2f8788117e7eff1d82e926ec794901d17c78024a50270940304540a733656f0d60405160405180910390a45b5050565b60006008600084815260200190815260200160002060000160008373ffffffffffffffffffffffffffffffffffffffff1673ffffffffffffffffffffffffffffffffffffffff16815260200190815260200160002060009054906101000a900460ff16905092915050565b828054620005229062000770565b90600052602060002090601f01602090048101928262000546576000855562000592565b82601f106200056157805160ff191683800117855562000592565b8280016001018555821562000592579182015b828111156200059157825182559160200191906001019062000574565b5b509050620005a19190620005a5565b5090565b5b80821115620005c0576000816000905550600101620005a6565b5090565b6000620005db620005d58462000703565b620006da565b90508083825260208201905082856020860282011115620006015762000600620008eb565b5b60005b858110156200063557816200061a88826200063f565b84526020840193506020830192505060018101905062000604565b5050509392505050565b60008151905062000650816200090b565b92915050565b600082601f8301126200066e576200066d620008e6565b5b815162000680848260208601620005c4565b91505092915050565b600060208284031215620006a257620006a1620008f5565b5b600082015167ffffffffffffffff811115620006c357620006c2620008f0565b5b620006d18482850162000656565b91505092915050565b6000620006e6620006f9565b9050620006f48282620007a6565b919050565b6000604051905090565b600067ffffffffffffffff821115620007215762000720620008b7565b5b602082029050602081019050919050565b60006200073f8262000746565b9050919050565b600073ffffffffffffffffffffffffffffffffffffffff82169050919050565b6000819050919050565b600060028204905060018216806200078957607f821691505b60208210811415620007a0576200079f62000859565b5b50919050565b620007b182620008fa565b810181811067ffffffffffffffff82111715620007d357620007d2620008b7565b5b80604052505050565b6000620007e98262000766565b91507fffffffffffffffffffffffffffffffffffffffffffffffffffffffffffffffff8214156200081f576200081e6200082a565b5b600182019050919050565b7f4e487b7100000000000000000000000000000000000000000000000000000000600052601160045260246000fd5b7f4e487b7100000000000000000000000000000000000000000000000000000000600052602260045260246000fd5b7f4e487b7100000000000000000000000000000000000000000000000000000000600052603260045260246000fd5b7f4e487b7100000000000000000000000000000000000000000000000000000000600052604160045260246000fd5b600080fd5b600080fd5b600080fd5b600080fd5b6000601f19601f8301169050919050565b620009168162000732565b81146200092257600080fd5b50565b61528580620009356000396000f3fe608060405234801561001057600080fd5b50600436106101fb5760003560e01c80638da5cb5b1161011a578063c48b0baa116100ad578063e19ed6541161007c578063e19ed654146105c9578063e1c5afb5146105f9578063e554482e14610629578063e985e9c514610647578063f2fde38b14610677576101fb565b8063c48b0baa14610541578063c87b56dd1461055f578063d090e47e1461058f578063d547741f146105ad576101fb565b8063a12fc2c1116100e9578063a12fc2c1146104b4578063a217fddf146104eb578063a22cb46514610509578063b88d4fde14610525576101fb565b80638da5cb5b1461041857806391d148541461043657806395d89b41146104665780639f4216e814610484576101fb565b806336568abe116101925780636352211e116101615780636352211e146103905780636c02a931146103c057806370a08231146103de578063715018a61461040e576101fb565b806336568abe1461031e57806342842e0e1461033a57806342966c68146103565780635f48df4414610372576101fb565b8063095ea7b3116101ce578063095ea7b31461029a57806323b872dd146102b6578063248a9ca3146102d25780632f2ff15d14610302576101fb565b806301ffc9a7146102005780630588565f1461023057806306fdde031461024c578063081812fc1461026a575b600080fd5b61021a60048036038101906102159190613c77565b610693565b60405161022791906144f8565b60405180910390f35b61024a60048036038101906102459190613a47565b6106a5565b005b6102546106da565b604051610261919061452e565b60405180910390f35b610284600480360381019061027f9190613e8b565b61076c565b604051610291919061446f565b60405180910390f35b6102b460048036038101906102af9190613bca565b6107b2565b005b6102d060048036038101906102cb9190613ab4565b6108ca565b005b6102ec60048036038101906102e79190613c0a565b61092a565b6040516102f99190614513565b60405180910390f35b61031c60048036038101906103179190613c37565b61094a565b005b61033860048036038101906103339190613c37565b61096b565b005b610354600480360381019061034f9190613ab4565b6109ee565b005b610370600480360381019061036b9190613e8b565b610a0e565b005b61037a610a4f565b604051610387919061452e565b60405180910390f35b6103aa60048036038101906103a59190613e8b565b610add565b6040516103b7919061446f565b60405180910390f35b6103c8610b8f565b6040516103d5919061452e565b60405180910390f35b6103f860048036038101906103f39190613a47565b610c1d565b6040516104059190614750565b60405180910390f35b610416610cd5565b005b610420610ce9565b60405161042d919061446f565b60405180910390f35b610450600480360381019061044b9190613c37565b610d13565b60405161045d91906144f8565b60405180910390f35b61046e610d7e565b60405161047b919061452e565b60405180910390f35b61049e60048036038101906104999190613e8b565b610e10565b6040516104ab919061452e565b60405180910390f35b6104ce60048036038101906104c99190613e2f565b610ebc565b6040516104e298979695949392919061476b565b60405180910390f35b6104f36111ec565b6040516105009190614513565b60405180910390f35b610523600480360381019061051e9190613b8a565b6111f3565b005b61053f600480360381019061053a9190613b07565b611209565b005b61054961126b565b6040516105569190614513565b60405180910390f35b61057960048036038101906105749190613e8b565b61128f565b604051610586919061452e565b60405180910390f35b6105976112a1565b6040516105a49190614750565b60405180910390f35b6105c760048036038101906105c29190613c37565b6112a7565b005b6105e360048036038101906105de9190613cd1565b6112c8565b6040516105f09190614750565b60405180910390f35b610613600480360381019061060e9190613a47565b61134c565b60405161062091906144d6565b60405180910390f35b610631611719565b60405161063e9190614750565b60405180910390f35b610661600480360381019061065c9190613a74565b61171f565b60405161066e91906144f8565b60405180910390f35b610691600480360381019061068c9190613a47565b6117b3565b005b600061069e82611837565b9050919050565b6106ad6118b1565b6106d77f014df5ee2861d7f34562399ffa112fc59b51f810d2b875c3609ba0c31ac873d08261192f565b50565b6060600080546106e990614b44565b80601f016020809104026020016040519081016040528092919081815260200182805461071590614b44565b80156107625780601f1061073757610100808354040283529160200191610762565b820191906000526020600020905b81548152906001019060200180831161074557829003601f168201915b5050505050905090565b60006107778261193d565b6004600083815260200190815260200160002060009054906101000a900473ffffffffffffffffffffffffffffffffffffffff169050919050565b60006107bd82610add565b90508073ffffffffffffffffffffffffffffffffffffffff168373ffffffffffffffffffffffffffffffffffffffff16141561082e576040517f08c379a0000000000000000000000000000000000000000000000000000000008152600401610825906146f0565b60405180910390fd5b8073ffffffffffffffffffffffffffffffffffffffff1661084d611988565b73ffffffffffffffffffffffffffffffffffffffff16148061087c575061087b81610876611988565b61171f565b5b6108bb576040517f08c379a00000000000000000000000000000000000000000000000000000000081526004016108b290614670565b60405180910390fd5b6108c58383611990565b505050565b6108db6108d5611988565b82611a49565b61091a576040517f08c379a000000000000000000000000000000000000000000000000000000000815260040161091190614710565b60405180910390fd5b610925838383611ade565b505050565b600060086000838152602001908152602001600020600101549050919050565b6109538261092a565b61095c81611d45565b6109668383611d59565b505050565b610973611988565b73ffffffffffffffffffffffffffffffffffffffff168173ffffffffffffffffffffffffffffffffffffffff16146109e0576040517f08c379a00000000000000000000000000000000000000000000000000000000081526004016109d790614730565b60405180910390fd5b6109ea8282611e3a565b5050565b610a0983838360405180602001604052806000815250611209565b505050565b7f014df5ee2861d7f34562399ffa112fc59b51f810d2b875c3609ba0c31ac873d0610a3881611d45565b610a4182611f1c565b610a4b3383611f28565b5050565b600b8054610a5c90614b44565b80601f0160208091040260200160405190810160405280929190818152602001828054610a8890614b44565b8015610ad55780601f10610aaa57610100808354040283529160200191610ad5565b820191906000526020600020905b815481529060010190602001808311610ab857829003601f168201915b505050505081565b6000806002600084815260200190815260200160002060009054906101000a900473ffffffffffffffffffffffffffffffffffffffff169050600073ffffffffffffffffffffffffffffffffffffffff168173ffffffffffffffffffffffffffffffffffffffff161415610b86576040517f08c379a0000000000000000000000000000000000000000000000000000000008152600401610b7d906146d0565b60405180910390fd5b80915050919050565b600a8054610b9c90614b44565b80601f0160208091040260200160405190810160405280929190818152602001828054610bc890614b44565b8015610c155780601f10610bea57610100808354040283529160200191610c15565b820191906000526020600020905b815481529060010190602001808311610bf857829003601f168201915b505050505081565b60008073ffffffffffffffffffffffffffffffffffffffff168273ffffffffffffffffffffffffffffffffffffffff161415610c8e576040517f08c379a0000000000000000000000000000000000000000000000000000000008152600401610c8590614630565b60405180910390fd5b600360008373ffffffffffffffffffffffffffffffffffffffff1673ffffffffffffffffffffffffffffffffffffffff168152602001908152602001600020549050919050565b610cdd6118b1565b610ce760006123d3565b565b6000600760009054906101000a900473ffffffffffffffffffffffffffffffffffffffff16905090565b60006008600084815260200190815260200160002060000160008373ffffffffffffffffffffffffffffffffffffffff1673ffffffffffffffffffffffffffffffffffffffff16815260200190815260200160002060009054906101000a900460ff16905092915050565b606060018054610d8d90614b44565b80601f0160208091040260200160405190810160405280929190818152602001828054610db990614b44565b8015610e065780601f10610ddb57610100808354040283529160200191610e06565b820191906000526020600020905b815481529060010190602001808311610de957829003601f168201915b5050505050905090565b600d8181548110610e2057600080fd5b906000526020600020016000915090508054610e3b90614b44565b80601f0160208091040260200160405190810160405280929190818152602001828054610e6790614b44565b8015610eb45780601f10610e8957610100808354040283529160200191610eb4565b820191906000526020600020905b815481529060010190602001808311610e9757829003601f168201915b505050505081565b600c828051602081018201805184825260208301602085012081835280955050505050508181548110610eee57600080fd5b906000526020600020906008020160009150915050806000015490806001018054610f1890614b44565b80601f0160208091040260200160405190810160405280929190818152602001828054610f4490614b44565b8015610f915780601f10610f6657610100808354040283529160200191610f91565b820191906000526020600020905b815481529060010190602001808311610f7457829003601f168201915b505050505090806002018054610fa690614b44565b80601f0160208091040260200160405190810160405280929190818152602001828054610fd290614b44565b801561101f5780601f10610ff45761010080835404028352916020019161101f565b820191906000526020600020905b81548152906001019060200180831161100257829003601f168201915b50505050509080600301805461103490614b44565b80601f016020809104026020016040519081016040528092919081815260200182805461106090614b44565b80156110ad5780601f10611082576101008083540402835291602001916110ad565b820191906000526020600020905b81548152906001019060200180831161109057829003601f168201915b5050505050908060040180546110c290614b44565b80601f01602080910402602001604051908101604052809291908181526020018280546110ee90614b44565b801561113b5780601f106111105761010080835404028352916020019161113b565b820191906000526020600020905b81548152906001019060200180831161111e57829003601f168201915b50505050509080600501805461115090614b44565b80601f016020809104026020016040519081016040528092919081815260200182805461117c90614b44565b80156111c95780601f1061119e576101008083540402835291602001916111c9565b820191906000526020600020905b8154815290600101906020018083116111ac57829003601f168201915b5050505050908060060160009054906101000a900460ff16908060070154905088565b6000801b81565b6112056111fe611988565b8383612499565b5050565b61121a611214611988565b83611a49565b611259576040517f08c379a000000000000000000000000000000000000000000000000000000000815260040161125090614710565b60405180910390fd5b61126584848484612606565b50505050565b7f014df5ee2861d7f34562399ffa112fc59b51f810d2b875c3609ba0c31ac873d081565b606061129a82612662565b9050919050565b60095481565b6112b08261092a565b6112b981611d45565b6112c38383611e3a565b505050565b60007f014df5ee2861d7f34562399ffa112fc59b51f810d2b875c3609ba0c31ac873d06112f481611d45565b600060095490506113058a82612775565b61130f818c612793565b6113218a8a8a8a8a8a8a600089612807565b6001600960008282546113349190614920565b92505081905550809250505098975050505050505050565b606060006113718373ffffffffffffffffffffffffffffffffffffffff166014612b0f565b9050600c8160405161138391906143df565b9081526020016040518091039020805480602002602001604051908101604052809291908181526020016000905b8282101561170d578382906000526020600020906008020160405180610100016040529081600082015481526020016001820180546113ef90614b44565b80601f016020809104026020016040519081016040528092919081815260200182805461141b90614b44565b80156114685780601f1061143d57610100808354040283529160200191611468565b820191906000526020600020905b81548152906001019060200180831161144b57829003601f168201915b5050505050815260200160028201805461148190614b44565b80601f01602080910402602001604051908101604052809291908181526020018280546114ad90614b44565b80156114fa5780601f106114cf576101008083540402835291602001916114fa565b820191906000526020600020905b8154815290600101906020018083116114dd57829003601f168201915b5050505050815260200160038201805461151390614b44565b80601f016020809104026020016040519081016040528092919081815260200182805461153f90614b44565b801561158c5780601f106115615761010080835404028352916020019161158c565b820191906000526020600020905b81548152906001019060200180831161156f57829003601f168201915b505050505081526020016004820180546115a590614b44565b80601f01602080910402602001604051908101604052809291908181526020018280546115d190614b44565b801561161e5780601f106115f35761010080835404028352916020019161161e565b820191906000526020600020905b81548152906001019060200180831161160157829003601f168201915b5050505050815260200160058201805461163790614b44565b80601f016020809104026020016040519081016040528092919081815260200182805461166390614b44565b80156116b05780601f10611685576101008083540402835291602001916116b0565b820191906000526020600020905b81548152906001019060200180831161169357829003601f168201915b505050505081526020016006820160009054906101000a900460ff1660018111156116de576116dd614c89565b5b60018111156116f0576116ef614c89565b5b8152602001600782015481525050815260200190600101906113b1565b50505050915050919050565b600e5481565b6000600560008473ffffffffffffffffffffffffffffffffffffffff1673ffffffffffffffffffffffffffffffffffffffff16815260200190815260200160002060008373ffffffffffffffffffffffffffffffffffffffff1673ffffffffffffffffffffffffffffffffffffffff16815260200190815260200160002060009054906101000a900460ff16905092915050565b6117bb6118b1565b600073ffffffffffffffffffffffffffffffffffffffff168173ffffffffffffffffffffffffffffffffffffffff16141561182b576040517f08c379a000000000000000000000000000000000000000000000000000000000815260040161182290614590565b60405180910390fd5b611834816123d3565b50565b60007f7965db0b000000000000000000000000000000000000000000000000000000007bffffffffffffffffffffffffffffffffffffffffffffffffffffffff1916827bffffffffffffffffffffffffffffffffffffffffffffffffffffffff191614806118aa57506118a982612d4b565b5b9050919050565b6118b9611988565b73ffffffffffffffffffffffffffffffffffffffff166118d7610ce9565b73ffffffffffffffffffffffffffffffffffffffff161461192d576040517f08c379a0000000000000000000000000000000000000000000000000000000008152600401611924906146b0565b60405180910390fd5b565b6119398282611d59565b5050565b61194681612e2d565b611985576040517f08c379a000000000000000000000000000000000000000000000000000000000815260040161197c906146d0565b60405180910390fd5b50565b600033905090565b816004600083815260200190815260200160002060006101000a81548173ffffffffffffffffffffffffffffffffffffffff021916908373ffffffffffffffffffffffffffffffffffffffff160217905550808273ffffffffffffffffffffffffffffffffffffffff16611a0383610add565b73ffffffffffffffffffffffffffffffffffffffff167f8c5be1e5ebec7d5bd14f71427d1e84f3dd0314c0f7b2291e5b200ac8c7c3b92560405160405180910390a45050565b600080611a5583610add565b90508073ffffffffffffffffffffffffffffffffffffffff168473ffffffffffffffffffffffffffffffffffffffff161480611a975750611a96818561171f565b5b80611ad557508373ffffffffffffffffffffffffffffffffffffffff16611abd8461076c565b73ffffffffffffffffffffffffffffffffffffffff16145b91505092915050565b8273ffffffffffffffffffffffffffffffffffffffff16611afe82610add565b73ffffffffffffffffffffffffffffffffffffffff1614611b54576040517f08c379a0000000000000000000000000000000000000000000000000000000008152600401611b4b906145b0565b60405180910390fd5b600073ffffffffffffffffffffffffffffffffffffffff168273ffffffffffffffffffffffffffffffffffffffff161415611bc4576040517f08c379a0000000000000000000000000000000000000000000000000000000008152600401611bbb906145f0565b60405180910390fd5b611bcf838383612e99565b611bda600082611990565b6001600360008573ffffffffffffffffffffffffffffffffffffffff1673ffffffffffffffffffffffffffffffffffffffff1681526020019081526020016000206000828254611c2a9190614a01565b925050819055506001600360008473ffffffffffffffffffffffffffffffffffffffff1673ffffffffffffffffffffffffffffffffffffffff1681526020019081526020016000206000828254611c819190614920565b92505081905550816002600083815260200190815260200160002060006101000a81548173ffffffffffffffffffffffffffffffffffffffff021916908373ffffffffffffffffffffffffffffffffffffffff160217905550808273ffffffffffffffffffffffffffffffffffffffff168473ffffffffffffffffffffffffffffffffffffffff167fddf252ad1be2c89b69c2b068fc378daa952ba7f163c4a11628f55a4df523b3ef60405160405180910390a4611d40838383612e9e565b505050565b611d5681611d51611988565b612ea3565b50565b611d638282610d13565b611e365760016008600084815260200190815260200160002060000160008373ffffffffffffffffffffffffffffffffffffffff1673ffffffffffffffffffffffffffffffffffffffff16815260200190815260200160002060006101000a81548160ff021916908315150217905550611ddb611988565b73ffffffffffffffffffffffffffffffffffffffff168173ffffffffffffffffffffffffffffffffffffffff16837f2f8788117e7eff1d82e926ec794901d17c78024a50270940304540a733656f0d60405160405180910390a45b5050565b611e448282610d13565b15611f185760006008600084815260200190815260200160002060000160008373ffffffffffffffffffffffffffffffffffffffff1673ffffffffffffffffffffffffffffffffffffffff16815260200190815260200160002060006101000a81548160ff021916908315150217905550611ebd611988565b73ffffffffffffffffffffffffffffffffffffffff168173ffffffffffffffffffffffffffffffffffffffff16837ff6391f5c32d9c69d2a47ea670b442974b53935d1edc7fd64eb21e047a839171b60405160405180910390a45b5050565b611f2581612f40565b50565b6000611f4b8373ffffffffffffffffffffffffffffffffffffffff166014612b0f565b90506000600c82604051611f5f91906143df565b9081526020016040518091039020805480602002602001604051908101604052809291908181526020016000905b828210156122e957838290600052602060002090600802016040518061010001604052908160008201548152602001600182018054611fcb90614b44565b80601f0160208091040260200160405190810160405280929190818152602001828054611ff790614b44565b80156120445780601f1061201957610100808354040283529160200191612044565b820191906000526020600020905b81548152906001019060200180831161202757829003601f168201915b5050505050815260200160028201805461205d90614b44565b80601f016020809104026020016040519081016040528092919081815260200182805461208990614b44565b80156120d65780601f106120ab576101008083540402835291602001916120d6565b820191906000526020600020905b8154815290600101906020018083116120b957829003601f168201915b505050505081526020016003820180546120ef90614b44565b80601f016020809104026020016040519081016040528092919081815260200182805461211b90614b44565b80156121685780601f1061213d57610100808354040283529160200191612168565b820191906000526020600020905b81548152906001019060200180831161214b57829003601f168201915b5050505050815260200160048201805461218190614b44565b80601f01602080910402602001604051908101604052809291908181526020018280546121ad90614b44565b80156121fa5780601f106121cf576101008083540402835291602001916121fa565b820191906000526020600020905b8154815290600101906020018083116121dd57829003601f168201915b5050505050815260200160058201805461221390614b44565b80601f016020809104026020016040519081016040528092919081815260200182805461223f90614b44565b801561228c5780601f106122615761010080835404028352916020019161228c565b820191906000526020600020905b81548152906001019060200180831161226f57829003601f168201915b505050505081526020016006820160009054906101000a900460ff1660018111156122ba576122b9614c89565b5b60018111156122cc576122cb614c89565b5b815260200160078201548152505081526020019060010190611f8d565b50505050905060005b81518110156123cc578360405160200161230c9190614454565b6040516020818303038152906040528051906020012082828151811061233557612334614ce7565b5b602002602001015160e001516040516020016123519190614454565b6040516020818303038152906040528051906020012014156123b957600182828151811061238257612381614ce7565b5b602002602001015160c0019060018111156123a05761239f614c89565b5b908160018111156123b4576123b3614c89565b5b815250505b80806123c490614ba7565b9150506122f2565b5050505050565b6000600760009054906101000a900473ffffffffffffffffffffffffffffffffffffffff16905081600760006101000a81548173ffffffffffffffffffffffffffffffffffffffff021916908373ffffffffffffffffffffffffffffffffffffffff1602179055508173ffffffffffffffffffffffffffffffffffffffff168173ffffffffffffffffffffffffffffffffffffffff167f8be0079c531659141344cd1fd0a4f28419497f9722a3daafe3b4186f6b6457e060405160405180910390a35050565b8173ffffffffffffffffffffffffffffffffffffffff168373ffffffffffffffffffffffffffffffffffffffff161415612508576040517f08c379a00000000000000000000000000000000000000000000000000000000081526004016124ff90614610565b60405180910390fd5b80600560008573ffffffffffffffffffffffffffffffffffffffff1673ffffffffffffffffffffffffffffffffffffffff16815260200190815260200160002060008473ffffffffffffffffffffffffffffffffffffffff1673ffffffffffffffffffffffffffffffffffffffff16815260200190815260200160002060006101000a81548160ff0219169083151502179055508173ffffffffffffffffffffffffffffffffffffffff168373ffffffffffffffffffffffffffffffffffffffff167f17307eab39ab6107e8899845ad3d59bd9653f200f220920489ca2b5937696c31836040516125f991906144f8565b60405180910390a3505050565b612611848484611ade565b61261d84848484612f93565b61265c576040517f08c379a000000000000000000000000000000000000000000000000000000000815260040161265390614570565b60405180910390fd5b50505050565b606061266d8261193d565b600060066000848152602001908152602001600020805461268d90614b44565b80601f01602080910402602001604051908101604052809291908181526020018280546126b990614b44565b80156127065780601f106126db57610100808354040283529160200191612706565b820191906000526020600020905b8154815290600101906020018083116126e957829003601f168201915b50505050509050600061271761312a565b905060008151141561272d578192505050612770565b60008251111561276257808260405160200161274a9291906143f6565b60405160208183030381529060405292505050612770565b61276b84613141565b925050505b919050565b61278f8282604051806020016040528060008152506131a9565b5050565b61279c82612e2d565b6127db576040517f08c379a00000000000000000000000000000000000000000000000000000000081526004016127d290614650565b60405180910390fd5b806006600084815260200190815260200160002090805190602001906128029291906137af565b505050565b600061282a8a73ffffffffffffffffffffffffffffffffffffffff166014612b0f565b90506000612909600d805480602002602001604051908101604052809291908181526020016000905b828210156128ff57838290600052602060002001805461287290614b44565b80601f016020809104026020016040519081016040528092919081815260200182805461289e90614b44565b80156128eb5780601f106128c0576101008083540402835291602001916128eb565b820191906000526020600020905b8154815290600101906020018083116128ce57829003601f168201915b505050505081526020019060010190612853565b5050505083613204565b9050600081121561296957600d8290806001815401808255809150506001900390600052602060002001600090919091909150908051906020019061294f9291906137af565b50600e600081548092919061296390614ba7565b91905055505b612971613835565b8a816000018181525050898160200181905250888160400181905250878160600181905250868160800181905250858160a00181905250848160c0019060018111156129c0576129bf614c89565b5b908160018111156129d4576129d3614c89565b5b81525050838160e0018181525050600c836040516129f291906143df565b9081526020016040518091039020819080600181540180825580915050600190039060005260206000209060080201600090919091909150600082015181600001556020820151816001019080519060200190612a509291906137af565b506040820151816002019080519060200190612a6d9291906137af565b506060820151816003019080519060200190612a8a9291906137af565b506080820151816004019080519060200190612aa79291906137af565b5060a0820151816005019080519060200190612ac49291906137af565b5060c08201518160060160006101000a81548160ff02191690836001811115612af057612aef614c89565b5b021790555060e082015181600701555050505050505050505050505050565b606060006002836002612b2291906149a7565b612b2c9190614920565b67ffffffffffffffff811115612b4557612b44614d16565b5b6040519080825280601f01601f191660200182016040528015612b775781602001600182028036833780820191505090505b5090507f300000000000000000000000000000000000000000000000000000000000000081600081518110612baf57612bae614ce7565b5b60200101907effffffffffffffffffffffffffffffffffffffffffffffffffffffffffffff1916908160001a9053507f780000000000000000000000000000000000000000000000000000000000000081600181518110612c1357612c12614ce7565b5b60200101907effffffffffffffffffffffffffffffffffffffffffffffffffffffffffffff1916908160001a90535060006001846002612c5391906149a7565b612c5d9190614920565b90505b6001811115612cfd577f3031323334353637383961626364656600000000000000000000000000000000600f861660108110612c9f57612c9e614ce7565b5b1a60f81b828281518110612cb657612cb5614ce7565b5b60200101907effffffffffffffffffffffffffffffffffffffffffffffffffffffffffffff1916908160001a905350600485901c945080612cf690614b1a565b9050612c60565b5060008414612d41576040517f08c379a0000000000000000000000000000000000000000000000000000000008152600401612d3890614550565b60405180910390fd5b8091505092915050565b60007f80ac58cd000000000000000000000000000000000000000000000000000000007bffffffffffffffffffffffffffffffffffffffffffffffffffffffff1916827bffffffffffffffffffffffffffffffffffffffffffffffffffffffff19161480612e1657507f5b5e139f000000000000000000000000000000000000000000000000000000007bffffffffffffffffffffffffffffffffffffffffffffffffffffffff1916827bffffffffffffffffffffffffffffffffffffffffffffffffffffffff1916145b80612e265750612e25826132ca565b5b9050919050565b60008073ffffffffffffffffffffffffffffffffffffffff166002600084815260200190815260200160002060009054906101000a900473ffffffffffffffffffffffffffffffffffffffff1673ffffffffffffffffffffffffffffffffffffffff1614159050919050565b505050565b505050565b612ead8282610d13565b612f3c57612ed28173ffffffffffffffffffffffffffffffffffffffff166014612b0f565b612ee08360001c6020612b0f565b604051602001612ef192919061441a565b6040516020818303038152906040526040517f08c379a0000000000000000000000000000000000000000000000000000000008152600401612f33919061452e565b60405180910390fd5b5050565b612f4981613334565b6000600660008381526020019081526020016000208054612f6990614b44565b905014612f9057600660008281526020019081526020016000206000612f8f919061388c565b5b50565b6000612fb48473ffffffffffffffffffffffffffffffffffffffff16613451565b1561311d578373ffffffffffffffffffffffffffffffffffffffff1663150b7a02612fdd611988565b8786866040518563ffffffff1660e01b8152600401612fff949392919061448a565b602060405180830381600087803b15801561301957600080fd5b505af192505050801561304a57506040513d601f19601f820116820180604052508101906130479190613ca4565b60015b6130cd573d806000811461307a576040519150601f19603f3d011682016040523d82523d6000602084013e61307f565b606091505b506000815114156130c5576040517f08c379a00000000000000000000000000000000000000000000000000000000081526004016130bc90614570565b60405180910390fd5b805181602001fd5b63150b7a0260e01b7bffffffffffffffffffffffffffffffffffffffffffffffffffffffff1916817bffffffffffffffffffffffffffffffffffffffffffffffffffffffff191614915050613122565b600190505b949350505050565b606060405180602001604052806000815250905090565b606061314c8261193d565b600061315661312a565b9050600081511161317657604051806020016040528060008152506131a1565b8061318084613474565b6040516020016131919291906143f6565b6040516020818303038152906040525b915050919050565b6131b383836135d5565b6131c06000848484612f93565b6131ff576040517f08c379a00000000000000000000000000000000000000000000000000000000081526004016131f690614570565b60405180910390fd5b505050565b600080600090505b835181101561329f578260405160200161322691906143df565b6040516020818303038152906040528051906020012084828151811061324f5761324e614ce7565b5b602002602001015160405160200161326791906143df565b60405160208183030381529060405280519060200120141561328c57809150506132c4565b808061329790614ba7565b91505061320c565b507fffffffffffffffffffffffffffffffffffffffffffffffffffffffffffffffff90505b92915050565b60007f01ffc9a7000000000000000000000000000000000000000000000000000000007bffffffffffffffffffffffffffffffffffffffffffffffffffffffff1916827bffffffffffffffffffffffffffffffffffffffffffffffffffffffff1916149050919050565b600061333f82610add565b905061334d81600084612e99565b613358600083611990565b6001600360008373ffffffffffffffffffffffffffffffffffffffff1673ffffffffffffffffffffffffffffffffffffffff16815260200190815260200160002060008282546133a89190614a01565b925050819055506002600083815260200190815260200160002060006101000a81549073ffffffffffffffffffffffffffffffffffffffff021916905581600073ffffffffffffffffffffffffffffffffffffffff168273ffffffffffffffffffffffffffffffffffffffff167fddf252ad1be2c89b69c2b068fc378daa952ba7f163c4a11628f55a4df523b3ef60405160405180910390a461344d81600084612e9e565b5050565b6000808273ffffffffffffffffffffffffffffffffffffffff163b119050919050565b606060008214156134bc576040518060400160405280600181526020017f300000000000000000000000000000000000000000000000000000000000000081525090506135d0565b600082905060005b600082146134ee5780806134d790614ba7565b915050600a826134e79190614976565b91506134c4565b60008167ffffffffffffffff81111561350a57613509614d16565b5b6040519080825280601f01601f19166020018201604052801561353c5781602001600182028036833780820191505090505b5090505b600085146135c9576001826135559190614a01565b9150600a856135649190614bfa565b60306135709190614920565b60f81b81838151811061358657613585614ce7565b5b60200101907effffffffffffffffffffffffffffffffffffffffffffffffffffffffffffff1916908160001a905350600a856135c29190614976565b9450613540565b8093505050505b919050565b600073ffffffffffffffffffffffffffffffffffffffff168273ffffffffffffffffffffffffffffffffffffffff161415613645576040517f08c379a000000000000000000000000000000000000000000000000000000000815260040161363c90614690565b60405180910390fd5b61364e81612e2d565b1561368e576040517f08c379a0000000000000000000000000000000000000000000000000000000008152600401613685906145d0565b60405180910390fd5b61369a60008383612e99565b6001600360008473ffffffffffffffffffffffffffffffffffffffff1673ffffffffffffffffffffffffffffffffffffffff16815260200190815260200160002060008282546136ea9190614920565b92505081905550816002600083815260200190815260200160002060006101000a81548173ffffffffffffffffffffffffffffffffffffffff021916908373ffffffffffffffffffffffffffffffffffffffff160217905550808273ffffffffffffffffffffffffffffffffffffffff16600073ffffffffffffffffffffffffffffffffffffffff167fddf252ad1be2c89b69c2b068fc378daa952ba7f163c4a11628f55a4df523b3ef60405160405180910390a46137ab60008383612e9e565b5050565b8280546137bb90614b44565b90600052602060002090601f0160209004810192826137dd5760008555613824565b82601f106137f657805160ff1916838001178555613824565b82800160010185558215613824579182015b82811115613823578251825591602001919060010190613808565b5b50905061383191906138cc565b5090565b6040518061010001604052806000815260200160608152602001606081526020016060815260200160608152602001606081526020016000600181111561387f5761387e614c89565b5b8152602001600081525090565b50805461389890614b44565b6000825580601f106138aa57506138c9565b601f0160209004906000526020600020908101906138c891906138cc565b5b50565b5b808211156138e55760008160009055506001016138cd565b5090565b60006138fc6138f784614831565b61480c565b90508281526020810184848401111561391857613917614d4a565b5b613923848285614ad8565b509392505050565b600061393e61393984614862565b61480c565b90508281526020810184848401111561395a57613959614d4a565b5b613965848285614ad8565b509392505050565b60008135905061397c816151dc565b92915050565b600081359050613991816151f3565b92915050565b6000813590506139a68161520a565b92915050565b6000813590506139bb81615221565b92915050565b6000815190506139d081615221565b92915050565b600082601f8301126139eb576139ea614d45565b5b81356139fb8482602086016138e9565b91505092915050565b600082601f830112613a1957613a18614d45565b5b8135613a2984826020860161392b565b91505092915050565b600081359050613a4181615238565b92915050565b600060208284031215613a5d57613a5c614d54565b5b6000613a6b8482850161396d565b91505092915050565b60008060408385031215613a8b57613a8a614d54565b5b6000613a998582860161396d565b9250506020613aaa8582860161396d565b9150509250929050565b600080600060608486031215613acd57613acc614d54565b5b6000613adb8682870161396d565b9350506020613aec8682870161396d565b9250506040613afd86828701613a32565b9150509250925092565b60008060008060808587031215613b2157613b20614d54565b5b6000613b2f8782880161396d565b9450506020613b408782880161396d565b9350506040613b5187828801613a32565b925050606085013567ffffffffffffffff811115613b7257613b71614d4f565b5b613b7e878288016139d6565b91505092959194509250565b60008060408385031215613ba157613ba0614d54565b5b6000613baf8582860161396d565b9250506020613bc085828601613982565b9150509250929050565b60008060408385031215613be157613be0614d54565b5b6000613bef8582860161396d565b9250506020613c0085828601613a32565b9150509250929050565b600060208284031215613c2057613c1f614d54565b5b6000613c2e84828501613997565b91505092915050565b60008060408385031215613c4e57613c4d614d54565b5b6000613c5c85828601613997565b9250506020613c6d8582860161396d565b9150509250929050565b600060208284031215613c8d57613c8c614d54565b5b6000613c9b848285016139ac565b91505092915050565b600060208284031215613cba57613cb9614d54565b5b6000613cc8848285016139c1565b91505092915050565b600080600080600080600080610100898b031215613cf257613cf1614d54565b5b600089013567ffffffffffffffff811115613d1057613d0f614d4f565b5b613d1c8b828c01613a04565b9850506020613d2d8b828c0161396d565b9750506040613d3e8b828c01613a32565b965050606089013567ffffffffffffffff811115613d5f57613d5e614d4f565b5b613d6b8b828c01613a04565b955050608089013567ffffffffffffffff811115613d8c57613d8b614d4f565b5b613d988b828c01613a04565b94505060a089013567ffffffffffffffff811115613db957613db8614d4f565b5b613dc58b828c01613a04565b93505060c089013567ffffffffffffffff811115613de657613de5614d4f565b5b613df28b828c01613a04565b92505060e089013567ffffffffffffffff811115613e1357613e12614d4f565b5b613e1f8b828c01613a04565b9150509295985092959890939650565b60008060408385031215613e4657613e45614d54565b5b600083013567ffffffffffffffff811115613e6457613e63614d4f565b5b613e7085828601613a04565b9250506020613e8185828601613a32565b9150509250929050565b600060208284031215613ea157613ea0614d54565b5b6000613eaf84828501613a32565b91505092915050565b6000613ec483836142de565b905092915050565b613ed581614a35565b82525050565b6000613ee6826148a3565b613ef081856148d1565b935083602082028501613f0285614893565b8060005b85811015613f3e5784840389528151613f1f8582613eb8565b9450613f2a836148c4565b925060208a01995050600181019050613f06565b50829750879550505050505092915050565b613f5981614a47565b82525050565b613f6881614a53565b82525050565b6000613f79826148ae565b613f8381856148e2565b9350613f93818560208601614ae7565b613f9c81614d59565b840191505092915050565b613fb081614ac6565b82525050565b613fbf81614ac6565b82525050565b6000613fd0826148b9565b613fda81856148f3565b9350613fea818560208601614ae7565b613ff381614d59565b840191505092915050565b6000614009826148b9565b6140138185614904565b9350614023818560208601614ae7565b61402c81614d59565b840191505092915050565b6000614042826148b9565b61404c8185614915565b935061405c818560208601614ae7565b80840191505092915050565b6000614075602083614904565b915061408082614d6a565b602082019050919050565b6000614098603283614904565b91506140a382614d93565b604082019050919050565b60006140bb602683614904565b91506140c682614de2565b604082019050919050565b60006140de602583614904565b91506140e982614e31565b604082019050919050565b6000614101601c83614904565b915061410c82614e80565b602082019050919050565b6000614124602483614904565b915061412f82614ea9565b604082019050919050565b6000614147601983614904565b915061415282614ef8565b602082019050919050565b600061416a602983614904565b915061417582614f21565b604082019050919050565b600061418d602e83614904565b915061419882614f70565b604082019050919050565b60006141b0603e83614904565b91506141bb82614fbf565b604082019050919050565b60006141d3602083614904565b91506141de8261500e565b602082019050919050565b60006141f6602083614904565b915061420182615037565b602082019050919050565b6000614219601883614904565b915061422482615060565b602082019050919050565b600061423c602183614904565b915061424782615089565b604082019050919050565b600061425f601783614915565b915061426a826150d8565b601782019050919050565b6000614282602e83614904565b915061428d82615101565b604082019050919050565b60006142a5601183614915565b91506142b082615150565b601182019050919050565b60006142c8602f83614904565b91506142d382615179565b604082019050919050565b6000610100830160008301516142f760008601826143aa565b506020830151848203602086015261430f8282613fc5565b915050604083015184820360408601526143298282613fc5565b915050606083015184820360608601526143438282613fc5565b9150506080830151848203608086015261435d8282613fc5565b91505060a083015184820360a08601526143778282613fc5565b91505060c083015161438c60c0860182613fa7565b5060e083015161439f60e08601826143aa565b508091505092915050565b6143b381614abc565b82525050565b6143c281614abc565b82525050565b6143d96143d482614abc565b614bf0565b82525050565b60006143eb8284614037565b915081905092915050565b60006144028285614037565b915061440e8284614037565b91508190509392505050565b600061442582614252565b91506144318285614037565b915061443c82614298565b91506144488284614037565b91508190509392505050565b600061446082846143c8565b60208201915081905092915050565b60006020820190506144846000830184613ecc565b92915050565b600060808201905061449f6000830187613ecc565b6144ac6020830186613ecc565b6144b960408301856143b9565b81810360608301526144cb8184613f6e565b905095945050505050565b600060208201905081810360008301526144f08184613edb565b905092915050565b600060208201905061450d6000830184613f50565b92915050565b60006020820190506145286000830184613f5f565b92915050565b600060208201905081810360008301526145488184613ffe565b905092915050565b6000602082019050818103600083015261456981614068565b9050919050565b600060208201905081810360008301526145898161408b565b9050919050565b600060208201905081810360008301526145a9816140ae565b9050919050565b600060208201905081810360008301526145c9816140d1565b9050919050565b600060208201905081810360008301526145e9816140f4565b9050919050565b6000602082019050818103600083015261460981614117565b9050919050565b600060208201905081810360008301526146298161413a565b9050919050565b600060208201905081810360008301526146498161415d565b9050919050565b6000602082019050818103600083015261466981614180565b9050919050565b60006020820190508181036000830152614689816141a3565b9050919050565b600060208201905081810360008301526146a9816141c6565b9050919050565b600060208201905081810360008301526146c9816141e9565b9050919050565b600060208201905081810360008301526146e98161420c565b9050919050565b600060208201905081810360008301526147098161422f565b9050919050565b6000602082019050818103600083015261472981614275565b9050919050565b60006020820190508181036000830152614749816142bb565b9050919050565b600060208201905061476560008301846143b9565b92915050565b600061010082019050614781600083018b6143b9565b8181036020830152614793818a613ffe565b905081810360408301526147a78189613ffe565b905081810360608301526147bb8188613ffe565b905081810360808301526147cf8187613ffe565b905081810360a08301526147e38186613ffe565b90506147f260c0830185613fb6565b6147ff60e08301846143b9565b9998505050505050505050565b6000614816614827565b90506148228282614b76565b919050565b6000604051905090565b600067ffffffffffffffff82111561484c5761484b614d16565b5b61485582614d59565b9050602081019050919050565b600067ffffffffffffffff82111561487d5761487c614d16565b5b61488682614d59565b9050602081019050919050565b6000819050602082019050919050565b600081519050919050565b600081519050919050565b600081519050919050565b6000602082019050919050565b600082825260208201905092915050565b600082825260208201905092915050565b600082825260208201905092915050565b600082825260208201905092915050565b600081905092915050565b600061492b82614abc565b915061493683614abc565b9250827fffffffffffffffffffffffffffffffffffffffffffffffffffffffffffffffff0382111561496b5761496a614c2b565b5b828201905092915050565b600061498182614abc565b915061498c83614abc565b92508261499c5761499b614c5a565b5b828204905092915050565b60006149b282614abc565b91506149bd83614abc565b9250817fffffffffffffffffffffffffffffffffffffffffffffffffffffffffffffffff04831182151516156149f6576149f5614c2b565b5b828202905092915050565b6000614a0c82614abc565b9150614a1783614abc565b925082821015614a2a57614a29614c2b565b5b828203905092915050565b6000614a4082614a9c565b9050919050565b60008115159050919050565b6000819050919050565b60007fffffffff0000000000000000000000000000000000000000000000000000000082169050919050565b6000819050614a97826151c8565b919050565b600073ffffffffffffffffffffffffffffffffffffffff82169050919050565b6000819050919050565b6000614ad182614a89565b9050919050565b82818337600083830152505050565b60005b83811015614b05578082015181840152602081019050614aea565b83811115614b14576000848401525b50505050565b6000614b2582614abc565b91506000821415614b3957614b38614c2b565b5b600182039050919050565b60006002820490506001821680614b5c57607f821691505b60208210811415614b7057614b6f614cb8565b5b50919050565b614b7f82614d59565b810181811067ffffffffffffffff82111715614b9e57614b9d614d16565b5b80604052505050565b6000614bb282614abc565b91507fffffffffffffffffffffffffffffffffffffffffffffffffffffffffffffffff821415614be557614be4614c2b565b5b600182019050919050565b6000819050919050565b6000614c0582614abc565b9150614c1083614abc565b925082614c2057614c1f614c5a565b5b828206905092915050565b7f4e487b7100000000000000000000000000000000000000000000000000000000600052601160045260246000fd5b7f4e487b7100000000000000000000000000000000000000000000000000000000600052601260045260246000fd5b7f4e487b7100000000000000000000000000000000000000000000000000000000600052602160045260246000fd5b7f4e487b7100000000000000000000000000000000000000000000000000000000600052602260045260246000fd5b7f4e487b7100000000000000000000000000000000000000000000000000000000600052603260045260246000fd5b7f4e487b7100000000000000000000000000000000000000000000000000000000600052604160045260246000fd5b600080fd5b600080fd5b600080fd5b600080fd5b6000601f19601f8301169050919050565b7f537472696e67733a20686578206c656e67746820696e73756666696369656e74600082015250565b7f4552433732313a207472616e7366657220746f206e6f6e20455243373231526560008201527f63656976657220696d706c656d656e7465720000000000000000000000000000602082015250565b7f4f776e61626c653a206e6577206f776e657220697320746865207a65726f206160008201527f6464726573730000000000000000000000000000000000000000000000000000602082015250565b7f4552433732313a207472616e736665722066726f6d20696e636f72726563742060008201527f6f776e6572000000000000000000000000000000000000000000000000000000602082015250565b7f4552433732313a20746f6b656e20616c7265616479206d696e74656400000000600082015250565b7f4552433732313a207472616e7366657220746f20746865207a65726f2061646460008201527f7265737300000000000000000000000000000000000000000000000000000000602082015250565b7f4552433732313a20617070726f766520746f2063616c6c657200000000000000600082015250565b7f4552433732313a2061646472657373207a65726f206973206e6f74206120766160008201527f6c6964206f776e65720000000000000000000000000000000000000000000000602082015250565b7f45524337323155524953746f726167653a2055524920736574206f66206e6f6e60008201527f6578697374656e7420746f6b656e000000000000000000000000000000000000602082015250565b7f4552433732313a20617070726f76652063616c6c6572206973206e6f7420746f60008201527f6b656e206f776e6572206e6f7220617070726f76656420666f7220616c6c0000602082015250565b7f4552433732313a206d696e7420746f20746865207a65726f2061646472657373600082015250565b7f4f776e61626c653a2063616c6c6572206973206e6f7420746865206f776e6572600082015250565b7f4552433732313a20696e76616c696420746f6b656e2049440000000000000000600082015250565b7f4552433732313a20617070726f76616c20746f2063757272656e74206f776e6560008201527f7200000000000000000000000000000000000000000000000000000000000000602082015250565b7f416363657373436f6e74726f6c3a206163636f756e7420000000000000000000600082015250565b7f4552433732313a2063616c6c6572206973206e6f7420746f6b656e206f776e6560008201527f72206e6f7220617070726f766564000000000000000000000000000000000000602082015250565b7f206973206d697373696e6720726f6c6520000000000000000000000000000000600082015250565b7f416363657373436f6e74726f6c3a2063616e206f6e6c792072656e6f756e636560008201527f20726f6c657320666f722073656c660000000000000000000000000000000000602082015250565b600281106151d9576151d8614c89565b5b50565b6151e581614a35565b81146151f057600080fd5b50565b6151fc81614a47565b811461520757600080fd5b50565b61521381614a53565b811461521e57600080fd5b50565b61522a81614a5d565b811461523557600080fd5b50565b61524181614abc565b811461524c57600080fd5b5056fea2646970667358221220037979d309277f16406dbbfb3079f5c3763a82ad11fbec1647be79df25c706eb64736f6c63430008070033",
  "linkReferences": {},
  "deployedLinkReferences": {}
}