{
  "_format": "hh-sol-artifact-1",
  "contractName": "PropertyMinter",
  "sourceName": "contracts/PropertyMinter.sol",
  "abi": [
    {
      "inputs": [
        {
          "internalType": "address[]",
          "name": "notaries",
          "type": "address[]"
        }
      ],
      "stateMutability": "nonpayable",
      "type": "constructor"
    },
    {
      "anonymous": false,
      "inputs": [
        {
          "indexed": true,
          "internalType": "address",
          "name": "owner",
          "type": "address"
        },
        {
          "indexed": true,
          "internalType": "address",
          "name": "approved",
          "type": "address"
        },
        {
          "indexed": true,
          "internalType": "uint256",
          "name": "tokenId",
          "type": "uint256"
        }
      ],
      "name": "Approval",
      "type": "event"
    },
    {
      "anonymous": false,
      "inputs": [
        {
          "indexed": true,
          "internalType": "address",
          "name": "owner",
          "type": "address"
        },
        {
          "indexed": true,
          "internalType": "address",
          "name": "operator",
          "type": "address"
        },
        {
          "indexed": false,
          "internalType": "bool",
          "name": "approved",
          "type": "bool"
        }
      ],
      "name": "ApprovalForAll",
      "type": "event"
    },
    {
      "anonymous": false,
      "inputs": [
        {
          "indexed": true,
          "internalType": "address",
          "name": "previousOwner",
          "type": "address"
        },
        {
          "indexed": true,
          "internalType": "address",
          "name": "newOwner",
          "type": "address"
        }
      ],
      "name": "OwnershipTransferred",
      "type": "event"
    },
    {
      "anonymous": false,
      "inputs": [
        {
          "indexed": true,
          "internalType": "bytes32",
          "name": "role",
          "type": "bytes32"
        },
        {
          "indexed": true,
          "internalType": "bytes32",
          "name": "previousAdminRole",
          "type": "bytes32"
        },
        {
          "indexed": true,
          "internalType": "bytes32",
          "name": "newAdminRole",
          "type": "bytes32"
        }
      ],
      "name": "RoleAdminChanged",
      "type": "event"
    },
    {
      "anonymous": false,
      "inputs": [
        {
          "indexed": true,
          "internalType": "bytes32",
          "name": "role",
          "type": "bytes32"
        },
        {
          "indexed": true,
          "internalType": "address",
          "name": "account",
          "type": "address"
        },
        {
          "indexed": true,
          "internalType": "address",
          "name": "sender",
          "type": "address"
        }
      ],
      "name": "RoleGranted",
      "type": "event"
    },
    {
      "anonymous": false,
      "inputs": [
        {
          "indexed": true,
          "internalType": "bytes32",
          "name": "role",
          "type": "bytes32"
        },
        {
          "indexed": true,
          "internalType": "address",
          "name": "account",
          "type": "address"
        },
        {
          "indexed": true,
          "internalType": "address",
          "name": "sender",
          "type": "address"
        }
      ],
      "name": "RoleRevoked",
      "type": "event"
    },
    {
      "anonymous": false,
      "inputs": [
        {
          "indexed": true,
          "internalType": "address",
          "name": "from",
          "type": "address"
        },
        {
          "indexed": true,
          "internalType": "address",
          "name": "to",
          "type": "address"
        },
        {
          "indexed": true,
          "internalType": "uint256",
          "name": "tokenId",
          "type": "uint256"
        }
      ],
      "name": "Transfer",
      "type": "event"
    },
    {
      "inputs": [],
      "name": "DEFAULT_ADMIN_ROLE",
      "outputs": [
        {
          "internalType": "bytes32",
          "name": "",
          "type": "bytes32"
        }
      ],
      "stateMutability": "view",
      "type": "function"
    },
    {
      "inputs": [
        {
          "internalType": "address",
          "name": "_addressX",
          "type": "address"
        }
      ],
      "name": "GetUserProperties",
      "outputs": [
        {
          "components": [
            {
              "internalType": "uint256",
              "name": "date",
              "type": "uint256"
            },
            {
              "internalType": "string",
              "name": "owner",
              "type": "string"
            },
            {
              "internalType": "string",
              "name": "previousOwner",
              "type": "string"
            },
            {
              "internalType": "string",
              "name": "ownerContact",
              "type": "string"
            },
            {
              "internalType": "string",
              "name": "propertyAddress",
              "type": "string"
            },
            {
              "internalType": "string",
              "name": "PIN",
              "type": "string"
            },
            {
              "internalType": "enum PropertyMinter.Status",
              "name": "status",
              "type": "uint8"
            },
            {
              "internalType": "uint256",
              "name": "tokenId",
              "type": "uint256"
            }
          ],
          "internalType": "struct PropertyMinter.PropertyStruct[]",
          "name": "propertyStructsUser",
          "type": "tuple[]"
        }
      ],
      "stateMutability": "view",
      "type": "function"
    },
    {
      "inputs": [],
      "name": "NOTARY_ROLE",
      "outputs": [
        {
          "internalType": "bytes32",
          "name": "",
          "type": "bytes32"
        }
      ],
      "stateMutability": "view",
      "type": "function"
    },
    {
      "inputs": [
        {
          "internalType": "string",
          "name": "",
          "type": "string"
        },
        {
          "internalType": "uint256",
          "name": "",
          "type": "uint256"
        }
      ],
      "name": "UserProperties",
      "outputs": [
        {
          "internalType": "uint256",
          "name": "date",
          "type": "uint256"
        },
        {
          "internalType": "string",
          "name": "owner",
          "type": "string"
        },
        {
          "internalType": "string",
          "name": "previousOwner",
          "type": "string"
        },
        {
          "internalType": "string",
          "name": "ownerContact",
          "type": "string"
        },
        {
          "internalType": "string",
          "name": "propertyAddress",
          "type": "string"
        },
        {
          "internalType": "string",
          "name": "PIN",
          "type": "string"
        },
        {
          "internalType": "enum PropertyMinter.Status",
          "name": "status",
          "type": "uint8"
        },
        {
          "internalType": "uint256",
          "name": "tokenId",
          "type": "uint256"
        }
      ],
      "stateMutability": "view",
      "type": "function"
    },
    {
      "inputs": [
        {
          "internalType": "address",
          "name": "_newNotary",
          "type": "address"
        }
      ],
      "name": "addNotary",
      "outputs": [],
      "stateMutability": "nonpayable",
      "type": "function"
    },
    {
      "inputs": [
        {
          "internalType": "address",
          "name": "to",
          "type": "address"
        },
        {
          "internalType": "uint256",
          "name": "tokenId",
          "type": "uint256"
        }
      ],
      "name": "approve",
      "outputs": [],
      "stateMutability": "nonpayable",
      "type": "function"
    },
    {
      "inputs": [],
      "name": "arrayLength",
      "outputs": [
        {
          "internalType": "uint256",
          "name": "",
          "type": "uint256"
        }
      ],
      "stateMutability": "view",
      "type": "function"
    },
    {
      "inputs": [
        {
          "internalType": "address",
          "name": "owner",
          "type": "address"
        }
      ],
      "name": "balanceOf",
      "outputs": [
        {
          "internalType": "uint256",
          "name": "",
          "type": "uint256"
        }
      ],
      "stateMutability": "view",
      "type": "function"
    },
    {
      "inputs": [
        {
          "internalType": "uint256",
          "name": "_tokenId",
          "type": "uint256"
        }
      ],
      "name": "burn",
      "outputs": [],
      "stateMutability": "nonpayable",
      "type": "function"
    },
    {
      "inputs": [
        {
          "internalType": "uint256",
          "name": "tokenId",
          "type": "uint256"
        }
      ],
      "name": "getApproved",
      "outputs": [
        {
          "internalType": "address",
          "name": "",
          "type": "address"
        }
      ],
      "stateMutability": "view",
      "type": "function"
    },
    {
      "inputs": [
        {
          "internalType": "bytes32",
          "name": "role",
          "type": "bytes32"
        }
      ],
      "name": "getRoleAdmin",
      "outputs": [
        {
          "internalType": "bytes32",
          "name": "",
          "type": "bytes32"
        }
      ],
      "stateMutability": "view",
      "type": "function"
    },
    {
      "inputs": [
        {
          "internalType": "bytes32",
          "name": "role",
          "type": "bytes32"
        },
        {
          "internalType": "address",
          "name": "account",
          "type": "address"
        }
      ],
      "name": "grantRole",
      "outputs": [],
      "stateMutability": "nonpayable",
      "type": "function"
    },
    {
      "inputs": [
        {
          "internalType": "bytes32",
          "name": "role",
          "type": "bytes32"
        },
        {
          "internalType": "address",
          "name": "account",
          "type": "address"
        }
      ],
      "name": "hasRole",
      "outputs": [
        {
          "internalType": "bool",
          "name": "",
          "type": "bool"
        }
      ],
      "stateMutability": "view",
      "type": "function"
    },
    {
      "inputs": [
        {
          "internalType": "address",
          "name": "owner",
          "type": "address"
        },
        {
          "internalType": "address",
          "name": "operator",
          "type": "address"
        }
      ],
      "name": "isApprovedForAll",
      "outputs": [
        {
          "internalType": "bool",
          "name": "",
          "type": "bool"
        }
      ],
      "stateMutability": "view",
      "type": "function"
    },
    {
      "inputs": [
        {
          "internalType": "string",
          "name": "_tokenURI",
          "type": "string"
        },
        {
          "internalType": "address",
          "name": "_to",
          "type": "address"
        },
        {
          "internalType": "uint256",
          "name": "_date",
          "type": "uint256"
        },
        {
          "internalType": "string",
          "name": "_owner",
          "type": "string"
        },
        {
          "internalType": "string",
          "name": "_previousOwner",
          "type": "string"
        },
        {
          "internalType": "string",
          "name": "_ownerContact",
          "type": "string"
        },
        {
          "internalType": "string",
          "name": "_propertyAddress",
          "type": "string"
        },
        {
          "internalType": "string",
          "name": "_PIN",
          "type": "string"
        }
      ],
      "name": "mint",
      "outputs": [
        {
          "internalType": "uint256",
          "name": "",
          "type": "uint256"
        }
      ],
      "stateMutability": "nonpayable",
      "type": "function"
    },
    {
      "inputs": [],
      "name": "name",
      "outputs": [
        {
          "internalType": "string",
          "name": "",
          "type": "string"
        }
      ],
      "stateMutability": "view",
      "type": "function"
    },
    {
      "inputs": [],
      "name": "owner",
      "outputs": [
        {
          "internalType": "address",
          "name": "",
          "type": "address"
        }
      ],
      "stateMutability": "view",
      "type": "function"
    },
    {
      "inputs": [
        {
          "internalType": "uint256",
          "name": "tokenId",
          "type": "uint256"
        }
      ],
      "name": "ownerOf",
      "outputs": [
        {
          "internalType": "address",
          "name": "",
          "type": "address"
        }
      ],
      "stateMutability": "view",
      "type": "function"
    },
    {
      "inputs": [],
      "name": "propertyCounter",
      "outputs": [
        {
          "internalType": "uint256",
          "name": "",
          "type": "uint256"
        }
      ],
      "stateMutability": "view",
      "type": "function"
    },
    {
      "inputs": [],
      "name": "renounceOwnership",
      "outputs": [],
      "stateMutability": "nonpayable",
      "type": "function"
    },
    {
      "inputs": [
        {
          "internalType": "bytes32",
          "name": "role",
          "type": "bytes32"
        },
        {
          "internalType": "address",
          "name": "account",
          "type": "address"
        }
      ],
      "name": "renounceRole",
      "outputs": [],
      "stateMutability": "nonpayable",
      "type": "function"
    },
    {
      "inputs": [
        {
          "internalType": "bytes32",
          "name": "role",
          "type": "bytes32"
        },
        {
          "internalType": "address",
          "name": "account",
          "type": "address"
        }
      ],
      "name": "revokeRole",
      "outputs": [],
      "stateMutability": "nonpayable",
      "type": "function"
    },
    {
      "inputs": [
        {
          "internalType": "address",
          "name": "from",
          "type": "address"
        },
        {
          "internalType": "address",
          "name": "to",
          "type": "address"
        },
        {
          "internalType": "uint256",
          "name": "tokenId",
          "type": "uint256"
        }
      ],
      "name": "safeTransferFrom",
      "outputs": [],
      "stateMutability": "nonpayable",
      "type": "function"
    },
    {
      "inputs": [
        {
          "internalType": "address",
          "name": "from",
          "type": "address"
        },
        {
          "internalType": "address",
          "name": "to",
          "type": "address"
        },
        {
          "internalType": "uint256",
          "name": "tokenId",
          "type": "uint256"
        },
        {
          "internalType": "bytes",
          "name": "data",
          "type": "bytes"
        }
      ],
      "name": "safeTransferFrom",
      "outputs": [],
      "stateMutability": "nonpayable",
      "type": "function"
    },
    {
      "inputs": [
        {
          "internalType": "address",
          "name": "operator",
          "type": "address"
        },
        {
          "internalType": "bool",
          "name": "approved",
          "type": "bool"
        }
      ],
      "name": "setApprovalForAll",
      "outputs": [],
      "stateMutability": "nonpayable",
      "type": "function"
    },
    {
      "inputs": [
        {
          "internalType": "bytes4",
          "name": "interfaceId",
          "type": "bytes4"
        }
      ],
      "name": "supportsInterface",
      "outputs": [
        {
          "internalType": "bool",
          "name": "",
          "type": "bool"
        }
      ],
      "stateMutability": "view",
      "type": "function"
    },
    {
      "inputs": [],
      "name": "symbol",
      "outputs": [
        {
          "internalType": "string",
          "name": "",
          "type": "string"
        }
      ],
      "stateMutability": "view",
      "type": "function"
    },
    {
      "inputs": [],
      "name": "tokenName",
      "outputs": [
        {
          "internalType": "string",
          "name": "",
          "type": "string"
        }
      ],
      "stateMutability": "view",
      "type": "function"
    },
    {
      "inputs": [],
      "name": "tokenTicker",
      "outputs": [
        {
          "internalType": "string",
          "name": "",
          "type": "string"
        }
      ],
      "stateMutability": "view",
      "type": "function"
    },
    {
      "inputs": [
        {
          "internalType": "uint256",
          "name": "tokenId",
          "type": "uint256"
        }
      ],
      "name": "tokenURI",
      "outputs": [
        {
          "internalType": "string",
          "name": "",
          "type": "string"
        }
      ],
      "stateMutability": "view",
      "type": "function"
    },
    {
      "inputs": [
        {
          "internalType": "address",
          "name": "from",
          "type": "address"
        },
        {
          "internalType": "address",
          "name": "to",
          "type": "address"
        },
        {
          "internalType": "uint256",
          "name": "tokenId",
          "type": "uint256"
        }
      ],
      "name": "transferFrom",
      "outputs": [],
      "stateMutability": "nonpayable",
      "type": "function"
    },
    {
      "inputs": [
        {
          "internalType": "address",
          "name": "newOwner",
          "type": "address"
        }
      ],
      "name": "transferOwnership",
      "outputs": [],
      "stateMutability": "nonpayable",
      "type": "function"
    },
    {
      "inputs": [
        {
          "internalType": "uint256",
          "name": "",
          "type": "uint256"
        }
      ],
      "name": "userList",
      "outputs": [
        {
          "internalType": "string",
          "name": "",
          "type": "string"
        }
      ],
      "stateMutability": "view",
      "type": "function"
    }
  ],
  "bytecode": "0x60806040526040518060400160405280601381526020017f50726f706572747920446565642d20474f565400000000000000000000000000815250600a90805190602001906200005192919062000514565b506040518060400160405280600581526020017f5054594444000000000000000000000000000000000000000000000000000000815250600b90805190602001906200009f92919062000514565b50348015620000ad57600080fd5b5060405162005ba938038062005ba98339818101604052810190620000d39190620007b2565b600a8054620000e29062000832565b80601f0160208091040260200160405190810160405280929190818152602001828054620001109062000832565b8015620001615780601f10620001355761010080835404028352916020019162000161565b820191906000526020600020905b8154815290600101906020018083116200014357829003601f168201915b5050505050600b8054620001759062000832565b80601f0160208091040260200160405190810160405280929190818152602001828054620001a39062000832565b8015620001f45780601f10620001c857610100808354040283529160200191620001f4565b820191906000526020600020905b815481529060010190602001808311620001d657829003601f168201915b505050505081600090805190602001906200021192919062000514565b5080600190805190602001906200022a92919062000514565b5050506200024d62000241620002d360201b60201c565b620002db60201b60201c565b600060098190555060005b8151811015620002cb5760008282815181106200027a576200027962000868565b5b60200260200101519050620002b67f014df5ee2861d7f34562399ffa112fc59b51f810d2b875c3609ba0c31ac873d082620003a160201b60201c565b5080620002c390620008d0565b905062000258565b50506200091e565b600033905090565b6000600760009054906101000a900473ffffffffffffffffffffffffffffffffffffffff16905081600760006101000a81548173ffffffffffffffffffffffffffffffffffffffff021916908373ffffffffffffffffffffffffffffffffffffffff1602179055508173ffffffffffffffffffffffffffffffffffffffff168173ffffffffffffffffffffffffffffffffffffffff167f8be0079c531659141344cd1fd0a4f28419497f9722a3daafe3b4186f6b6457e060405160405180910390a35050565b620003b38282620003b760201b60201c565b5050565b620003c98282620004a960201b60201c565b620004a55760016008600084815260200190815260200160002060000160008373ffffffffffffffffffffffffffffffffffffffff1673ffffffffffffffffffffffffffffffffffffffff16815260200190815260200160002060006101000a81548160ff0219169083151502179055506200044a620002d360201b60201c565b73ffffffffffffffffffffffffffffffffffffffff168173ffffffffffffffffffffffffffffffffffffffff16837f2f8788117e7eff1d82e926ec794901d17c78024a50270940304540a733656f0d60405160405180910390a45b5050565b60006008600084815260200190815260200160002060000160008373ffffffffffffffffffffffffffffffffffffffff1673ffffffffffffffffffffffffffffffffffffffff16815260200190815260200160002060009054906101000a900460ff16905092915050565b828054620005229062000832565b90600052602060002090601f01602090048101928262000546576000855562000592565b82601f106200056157805160ff191683800117855562000592565b8280016001018555821562000592579182015b828111156200059157825182559160200191906001019062000574565b5b509050620005a19190620005a5565b5090565b5b80821115620005c0576000816000905550600101620005a6565b5090565b6000604051905090565b600080fd5b600080fd5b600080fd5b6000601f19601f8301169050919050565b7f4e487b7100000000000000000000000000000000000000000000000000000000600052604160045260246000fd5b6200062882620005dd565b810181811067ffffffffffffffff821117156200064a5762000649620005ee565b5b80604052505050565b60006200065f620005c4565b90506200066d82826200061d565b919050565b600067ffffffffffffffff82111562000690576200068f620005ee565b5b602082029050602081019050919050565b600080fd5b600073ffffffffffffffffffffffffffffffffffffffff82169050919050565b6000620006d382620006a6565b9050919050565b620006e581620006c6565b8114620006f157600080fd5b50565b6000815190506200070581620006da565b92915050565b6000620007226200071c8462000672565b62000653565b90508083825260208201905060208402830185811115620007485762000747620006a1565b5b835b81811015620007755780620007608882620006f4565b8452602084019350506020810190506200074a565b5050509392505050565b600082601f830112620007975762000796620005d8565b5b8151620007a98482602086016200070b565b91505092915050565b600060208284031215620007cb57620007ca620005ce565b5b600082015167ffffffffffffffff811115620007ec57620007eb620005d3565b5b620007fa848285016200077f565b91505092915050565b7f4e487b7100000000000000000000000000000000000000000000000000000000600052602260045260246000fd5b600060028204905060018216806200084b57607f821691505b6020821081141562000862576200086162000803565b5b50919050565b7f4e487b7100000000000000000000000000000000000000000000000000000000600052603260045260246000fd5b7f4e487b7100000000000000000000000000000000000000000000000000000000600052601160045260246000fd5b6000819050919050565b6000620008dd82620008c6565b91507fffffffffffffffffffffffffffffffffffffffffffffffffffffffffffffffff82141562000913576200091262000897565b5b600182019050919050565b61527b806200092e6000396000f3fe608060405234801561001057600080fd5b50600436106101fb5760003560e01c80638da5cb5b1161011a578063c48b0baa116100ad578063e19ed6541161007c578063e19ed654146105c9578063e1c5afb5146105f9578063e554482e14610629578063e985e9c514610647578063f2fde38b14610677576101fb565b8063c48b0baa14610541578063c87b56dd1461055f578063d090e47e1461058f578063d547741f146105ad576101fb565b8063a12fc2c1116100e9578063a12fc2c1146104b4578063a217fddf146104eb578063a22cb46514610509578063b88d4fde14610525576101fb565b80638da5cb5b1461041857806391d148541461043657806395d89b41146104665780639f4216e814610484576101fb565b806336568abe116101925780636352211e116101615780636352211e146103905780636c02a931146103c057806370a08231146103de578063715018a61461040e576101fb565b806336568abe1461031e57806342842e0e1461033a57806342966c68146103565780635f48df4414610372576101fb565b8063095ea7b3116101ce578063095ea7b31461029a57806323b872dd146102b6578063248a9ca3146102d25780632f2ff15d14610302576101fb565b806301ffc9a7146102005780630588565f1461023057806306fdde031461024c578063081812fc1461026a575b600080fd5b61021a6004803603810190610215919061394b565b610693565b6040516102279190613993565b60405180910390f35b61024a60048036038101906102459190613a0c565b6106a5565b005b6102546106da565b6040516102619190613ad2565b60405180910390f35b610284600480360381019061027f9190613b2a565b61076c565b6040516102919190613b66565b60405180910390f35b6102b460048036038101906102af9190613b81565b6107b2565b005b6102d060048036038101906102cb9190613bc1565b6108ca565b005b6102ec60048036038101906102e79190613c4a565b61092a565b6040516102f99190613c86565b60405180910390f35b61031c60048036038101906103179190613ca1565b61094a565b005b61033860048036038101906103339190613ca1565b61096b565b005b610354600480360381019061034f9190613bc1565b6109ee565b005b610370600480360381019061036b9190613b2a565b610a0e565b005b61037a610a4f565b6040516103879190613ad2565b60405180910390f35b6103aa60048036038101906103a59190613b2a565b610add565b6040516103b79190613b66565b60405180910390f35b6103c8610b8f565b6040516103d59190613ad2565b60405180910390f35b6103f860048036038101906103f39190613a0c565b610c1d565b6040516104059190613cf0565b60405180910390f35b610416610cd5565b005b610420610ce9565b60405161042d9190613b66565b60405180910390f35b610450600480360381019061044b9190613ca1565b610d13565b60405161045d9190613993565b60405180910390f35b61046e610d7e565b60405161047b9190613ad2565b60405180910390f35b61049e60048036038101906104999190613b2a565b610e10565b6040516104ab9190613ad2565b60405180910390f35b6104ce60048036038101906104c99190613e40565b610ebc565b6040516104e2989796959493929190613f13565b60405180910390f35b6104f36111ec565b6040516105009190613c86565b60405180910390f35b610523600480360381019061051e9190613fe0565b6111f3565b005b61053f600480360381019061053a91906140c1565b611209565b005b61054961126b565b6040516105569190613c86565b60405180910390f35b61057960048036038101906105749190613b2a565b61128f565b6040516105869190613ad2565b60405180910390f35b6105976112a1565b6040516105a49190613cf0565b60405180910390f35b6105c760048036038101906105c29190613ca1565b6112a7565b005b6105e360048036038101906105de9190614144565b6112c8565b6040516105f09190613cf0565b60405180910390f35b610613600480360381019061060e9190613a0c565b61134c565b6040516106209190614498565b60405180910390f35b610631611719565b60405161063e9190613cf0565b60405180910390f35b610661600480360381019061065c91906144ba565b61171f565b60405161066e9190613993565b60405180910390f35b610691600480360381019061068c9190613a0c565b6117b3565b005b600061069e82611837565b9050919050565b6106ad6118b1565b6106d77f014df5ee2861d7f34562399ffa112fc59b51f810d2b875c3609ba0c31ac873d08261192f565b50565b6060600080546106e990614529565b80601f016020809104026020016040519081016040528092919081815260200182805461071590614529565b80156107625780601f1061073757610100808354040283529160200191610762565b820191906000526020600020905b81548152906001019060200180831161074557829003601f168201915b5050505050905090565b60006107778261193d565b6004600083815260200190815260200160002060009054906101000a900473ffffffffffffffffffffffffffffffffffffffff169050919050565b60006107bd82610add565b90508073ffffffffffffffffffffffffffffffffffffffff168373ffffffffffffffffffffffffffffffffffffffff16141561082e576040517f08c379a0000000000000000000000000000000000000000000000000000000008152600401610825906145cd565b60405180910390fd5b8073ffffffffffffffffffffffffffffffffffffffff1661084d611988565b73ffffffffffffffffffffffffffffffffffffffff16148061087c575061087b81610876611988565b61171f565b5b6108bb576040517f08c379a00000000000000000000000000000000000000000000000000000000081526004016108b29061465f565b60405180910390fd5b6108c58383611990565b505050565b6108db6108d5611988565b82611a49565b61091a576040517f08c379a0000000000000000000000000000000000000000000000000000000008152600401610911906146f1565b60405180910390fd5b610925838383611ade565b505050565b600060086000838152602001908152602001600020600101549050919050565b6109538261092a565b61095c81611d45565b6109668383611d59565b505050565b610973611988565b73ffffffffffffffffffffffffffffffffffffffff168173ffffffffffffffffffffffffffffffffffffffff16146109e0576040517f08c379a00000000000000000000000000000000000000000000000000000000081526004016109d790614783565b60405180910390fd5b6109ea8282611e3a565b5050565b610a0983838360405180602001604052806000815250611209565b505050565b7f014df5ee2861d7f34562399ffa112fc59b51f810d2b875c3609ba0c31ac873d0610a3881611d45565b610a4182611f1c565b610a4b3383611f28565b5050565b600b8054610a5c90614529565b80601f0160208091040260200160405190810160405280929190818152602001828054610a8890614529565b8015610ad55780601f10610aaa57610100808354040283529160200191610ad5565b820191906000526020600020905b815481529060010190602001808311610ab857829003601f168201915b505050505081565b6000806002600084815260200190815260200160002060009054906101000a900473ffffffffffffffffffffffffffffffffffffffff169050600073ffffffffffffffffffffffffffffffffffffffff168173ffffffffffffffffffffffffffffffffffffffff161415610b86576040517f08c379a0000000000000000000000000000000000000000000000000000000008152600401610b7d906147ef565b60405180910390fd5b80915050919050565b600a8054610b9c90614529565b80601f0160208091040260200160405190810160405280929190818152602001828054610bc890614529565b8015610c155780601f10610bea57610100808354040283529160200191610c15565b820191906000526020600020905b815481529060010190602001808311610bf857829003601f168201915b505050505081565b60008073ffffffffffffffffffffffffffffffffffffffff168273ffffffffffffffffffffffffffffffffffffffff161415610c8e576040517f08c379a0000000000000000000000000000000000000000000000000000000008152600401610c8590614881565b60405180910390fd5b600360008373ffffffffffffffffffffffffffffffffffffffff1673ffffffffffffffffffffffffffffffffffffffff168152602001908152602001600020549050919050565b610cdd6118b1565b610ce760006123d3565b565b6000600760009054906101000a900473ffffffffffffffffffffffffffffffffffffffff16905090565b60006008600084815260200190815260200160002060000160008373ffffffffffffffffffffffffffffffffffffffff1673ffffffffffffffffffffffffffffffffffffffff16815260200190815260200160002060009054906101000a900460ff16905092915050565b606060018054610d8d90614529565b80601f0160208091040260200160405190810160405280929190818152602001828054610db990614529565b8015610e065780601f10610ddb57610100808354040283529160200191610e06565b820191906000526020600020905b815481529060010190602001808311610de957829003601f168201915b5050505050905090565b600d8181548110610e2057600080fd5b906000526020600020016000915090508054610e3b90614529565b80601f0160208091040260200160405190810160405280929190818152602001828054610e6790614529565b8015610eb45780601f10610e8957610100808354040283529160200191610eb4565b820191906000526020600020905b815481529060010190602001808311610e9757829003601f168201915b505050505081565b600c828051602081018201805184825260208301602085012081835280955050505050508181548110610eee57600080fd5b906000526020600020906008020160009150915050806000015490806001018054610f1890614529565b80601f0160208091040260200160405190810160405280929190818152602001828054610f4490614529565b8015610f915780601f10610f6657610100808354040283529160200191610f91565b820191906000526020600020905b815481529060010190602001808311610f7457829003601f168201915b505050505090806002018054610fa690614529565b80601f0160208091040260200160405190810160405280929190818152602001828054610fd290614529565b801561101f5780601f10610ff45761010080835404028352916020019161101f565b820191906000526020600020905b81548152906001019060200180831161100257829003601f168201915b50505050509080600301805461103490614529565b80601f016020809104026020016040519081016040528092919081815260200182805461106090614529565b80156110ad5780601f10611082576101008083540402835291602001916110ad565b820191906000526020600020905b81548152906001019060200180831161109057829003601f168201915b5050505050908060040180546110c290614529565b80601f01602080910402602001604051908101604052809291908181526020018280546110ee90614529565b801561113b5780601f106111105761010080835404028352916020019161113b565b820191906000526020600020905b81548152906001019060200180831161111e57829003601f168201915b50505050509080600501805461115090614529565b80601f016020809104026020016040519081016040528092919081815260200182805461117c90614529565b80156111c95780601f1061119e576101008083540402835291602001916111c9565b820191906000526020600020905b8154815290600101906020018083116111ac57829003601f168201915b5050505050908060060160009054906101000a900460ff16908060070154905088565b6000801b81565b6112056111fe611988565b8383612499565b5050565b61121a611214611988565b83611a49565b611259576040517f08c379a0000000000000000000000000000000000000000000000000000000008152600401611250906146f1565b60405180910390fd5b61126584848484612606565b50505050565b7f014df5ee2861d7f34562399ffa112fc59b51f810d2b875c3609ba0c31ac873d081565b606061129a82612662565b9050919050565b60095481565b6112b08261092a565b6112b981611d45565b6112c38383611e3a565b505050565b60007f014df5ee2861d7f34562399ffa112fc59b51f810d2b875c3609ba0c31ac873d06112f481611d45565b600060095490506113058a82612775565b61130f818c612793565b6113218a8a8a8a8a8a8a600089612807565b60016009600082825461133491906148d0565b92505081905550809250505098975050505050505050565b606060006113718373ffffffffffffffffffffffffffffffffffffffff166014612b05565b9050600c816040516113839190614962565b9081526020016040518091039020805480602002602001604051908101604052809291908181526020016000905b8282101561170d578382906000526020600020906008020160405180610100016040529081600082015481526020016001820180546113ef90614529565b80601f016020809104026020016040519081016040528092919081815260200182805461141b90614529565b80156114685780601f1061143d57610100808354040283529160200191611468565b820191906000526020600020905b81548152906001019060200180831161144b57829003601f168201915b5050505050815260200160028201805461148190614529565b80601f01602080910402602001604051908101604052809291908181526020018280546114ad90614529565b80156114fa5780601f106114cf576101008083540402835291602001916114fa565b820191906000526020600020905b8154815290600101906020018083116114dd57829003601f168201915b5050505050815260200160038201805461151390614529565b80601f016020809104026020016040519081016040528092919081815260200182805461153f90614529565b801561158c5780601f106115615761010080835404028352916020019161158c565b820191906000526020600020905b81548152906001019060200180831161156f57829003601f168201915b505050505081526020016004820180546115a590614529565b80601f01602080910402602001604051908101604052809291908181526020018280546115d190614529565b801561161e5780601f106115f35761010080835404028352916020019161161e565b820191906000526020600020905b81548152906001019060200180831161160157829003601f168201915b5050505050815260200160058201805461163790614529565b80601f016020809104026020016040519081016040528092919081815260200182805461166390614529565b80156116b05780601f10611685576101008083540402835291602001916116b0565b820191906000526020600020905b81548152906001019060200180831161169357829003601f168201915b505050505081526020016006820160009054906101000a900460ff1660018111156116de576116dd613e9c565b5b60018111156116f0576116ef613e9c565b5b8152602001600782015481525050815260200190600101906113b1565b50505050915050919050565b600e5481565b6000600560008473ffffffffffffffffffffffffffffffffffffffff1673ffffffffffffffffffffffffffffffffffffffff16815260200190815260200160002060008373ffffffffffffffffffffffffffffffffffffffff1673ffffffffffffffffffffffffffffffffffffffff16815260200190815260200160002060009054906101000a900460ff16905092915050565b6117bb6118b1565b600073ffffffffffffffffffffffffffffffffffffffff168173ffffffffffffffffffffffffffffffffffffffff16141561182b576040517f08c379a0000000000000000000000000000000000000000000000000000000008152600401611822906149eb565b60405180910390fd5b611834816123d3565b50565b60007f7965db0b000000000000000000000000000000000000000000000000000000007bffffffffffffffffffffffffffffffffffffffffffffffffffffffff1916827bffffffffffffffffffffffffffffffffffffffffffffffffffffffff191614806118aa57506118a982612d41565b5b9050919050565b6118b9611988565b73ffffffffffffffffffffffffffffffffffffffff166118d7610ce9565b73ffffffffffffffffffffffffffffffffffffffff161461192d576040517f08c379a000000000000000000000000000000000000000000000000000000000815260040161192490614a57565b60405180910390fd5b565b6119398282611d59565b5050565b61194681612e23565b611985576040517f08c379a000000000000000000000000000000000000000000000000000000000815260040161197c906147ef565b60405180910390fd5b50565b600033905090565b816004600083815260200190815260200160002060006101000a81548173ffffffffffffffffffffffffffffffffffffffff021916908373ffffffffffffffffffffffffffffffffffffffff160217905550808273ffffffffffffffffffffffffffffffffffffffff16611a0383610add565b73ffffffffffffffffffffffffffffffffffffffff167f8c5be1e5ebec7d5bd14f71427d1e84f3dd0314c0f7b2291e5b200ac8c7c3b92560405160405180910390a45050565b600080611a5583610add565b90508073ffffffffffffffffffffffffffffffffffffffff168473ffffffffffffffffffffffffffffffffffffffff161480611a975750611a96818561171f565b5b80611ad557508373ffffffffffffffffffffffffffffffffffffffff16611abd8461076c565b73ffffffffffffffffffffffffffffffffffffffff16145b91505092915050565b8273ffffffffffffffffffffffffffffffffffffffff16611afe82610add565b73ffffffffffffffffffffffffffffffffffffffff1614611b54576040517f08c379a0000000000000000000000000000000000000000000000000000000008152600401611b4b90614ae9565b60405180910390fd5b600073ffffffffffffffffffffffffffffffffffffffff168273ffffffffffffffffffffffffffffffffffffffff161415611bc4576040517f08c379a0000000000000000000000000000000000000000000000000000000008152600401611bbb90614b7b565b60405180910390fd5b611bcf838383612e8f565b611bda600082611990565b6001600360008573ffffffffffffffffffffffffffffffffffffffff1673ffffffffffffffffffffffffffffffffffffffff1681526020019081526020016000206000828254611c2a9190614b9b565b925050819055506001600360008473ffffffffffffffffffffffffffffffffffffffff1673ffffffffffffffffffffffffffffffffffffffff1681526020019081526020016000206000828254611c8191906148d0565b92505081905550816002600083815260200190815260200160002060006101000a81548173ffffffffffffffffffffffffffffffffffffffff021916908373ffffffffffffffffffffffffffffffffffffffff160217905550808273ffffffffffffffffffffffffffffffffffffffff168473ffffffffffffffffffffffffffffffffffffffff167fddf252ad1be2c89b69c2b068fc378daa952ba7f163c4a11628f55a4df523b3ef60405160405180910390a4611d40838383612e94565b505050565b611d5681611d51611988565b612e99565b50565b611d638282610d13565b611e365760016008600084815260200190815260200160002060000160008373ffffffffffffffffffffffffffffffffffffffff1673ffffffffffffffffffffffffffffffffffffffff16815260200190815260200160002060006101000a81548160ff021916908315150217905550611ddb611988565b73ffffffffffffffffffffffffffffffffffffffff168173ffffffffffffffffffffffffffffffffffffffff16837f2f8788117e7eff1d82e926ec794901d17c78024a50270940304540a733656f0d60405160405180910390a45b5050565b611e448282610d13565b15611f185760006008600084815260200190815260200160002060000160008373ffffffffffffffffffffffffffffffffffffffff1673ffffffffffffffffffffffffffffffffffffffff16815260200190815260200160002060006101000a81548160ff021916908315150217905550611ebd611988565b73ffffffffffffffffffffffffffffffffffffffff168173ffffffffffffffffffffffffffffffffffffffff16837ff6391f5c32d9c69d2a47ea670b442974b53935d1edc7fd64eb21e047a839171b60405160405180910390a45b5050565b611f2581612f36565b50565b6000611f4b8373ffffffffffffffffffffffffffffffffffffffff166014612b05565b90506000600c82604051611f5f9190614962565b9081526020016040518091039020805480602002602001604051908101604052809291908181526020016000905b828210156122e957838290600052602060002090600802016040518061010001604052908160008201548152602001600182018054611fcb90614529565b80601f0160208091040260200160405190810160405280929190818152602001828054611ff790614529565b80156120445780601f1061201957610100808354040283529160200191612044565b820191906000526020600020905b81548152906001019060200180831161202757829003601f168201915b5050505050815260200160028201805461205d90614529565b80601f016020809104026020016040519081016040528092919081815260200182805461208990614529565b80156120d65780601f106120ab576101008083540402835291602001916120d6565b820191906000526020600020905b8154815290600101906020018083116120b957829003601f168201915b505050505081526020016003820180546120ef90614529565b80601f016020809104026020016040519081016040528092919081815260200182805461211b90614529565b80156121685780601f1061213d57610100808354040283529160200191612168565b820191906000526020600020905b81548152906001019060200180831161214b57829003601f168201915b5050505050815260200160048201805461218190614529565b80601f01602080910402602001604051908101604052809291908181526020018280546121ad90614529565b80156121fa5780601f106121cf576101008083540402835291602001916121fa565b820191906000526020600020905b8154815290600101906020018083116121dd57829003601f168201915b5050505050815260200160058201805461221390614529565b80601f016020809104026020016040519081016040528092919081815260200182805461223f90614529565b801561228c5780601f106122615761010080835404028352916020019161228c565b820191906000526020600020905b81548152906001019060200180831161226f57829003601f168201915b505050505081526020016006820160009054906101000a900460ff1660018111156122ba576122b9613e9c565b5b60018111156122cc576122cb613e9c565b5b815260200160078201548152505081526020019060010190611f8d565b50505050905060005b81518110156123cc578360405160200161230c9190614bf0565b6040516020818303038152906040528051906020012082828151811061233557612334614c0b565b5b602002602001015160e001516040516020016123519190614bf0565b6040516020818303038152906040528051906020012014156123b957600182828151811061238257612381614c0b565b5b602002602001015160c0019060018111156123a05761239f613e9c565b5b908160018111156123b4576123b3613e9c565b5b815250505b80806123c490614c3a565b9150506122f2565b5050505050565b6000600760009054906101000a900473ffffffffffffffffffffffffffffffffffffffff16905081600760006101000a81548173ffffffffffffffffffffffffffffffffffffffff021916908373ffffffffffffffffffffffffffffffffffffffff1602179055508173ffffffffffffffffffffffffffffffffffffffff168173ffffffffffffffffffffffffffffffffffffffff167f8be0079c531659141344cd1fd0a4f28419497f9722a3daafe3b4186f6b6457e060405160405180910390a35050565b8173ffffffffffffffffffffffffffffffffffffffff168373ffffffffffffffffffffffffffffffffffffffff161415612508576040517f08c379a00000000000000000000000000000000000000000000000000000000081526004016124ff90614ccf565b60405180910390fd5b80600560008573ffffffffffffffffffffffffffffffffffffffff1673ffffffffffffffffffffffffffffffffffffffff16815260200190815260200160002060008473ffffffffffffffffffffffffffffffffffffffff1673ffffffffffffffffffffffffffffffffffffffff16815260200190815260200160002060006101000a81548160ff0219169083151502179055508173ffffffffffffffffffffffffffffffffffffffff168373ffffffffffffffffffffffffffffffffffffffff167f17307eab39ab6107e8899845ad3d59bd9653f200f220920489ca2b5937696c31836040516125f99190613993565b60405180910390a3505050565b612611848484611ade565b61261d84848484612f89565b61265c576040517f08c379a000000000000000000000000000000000000000000000000000000000815260040161265390614d61565b60405180910390fd5b50505050565b606061266d8261193d565b600060066000848152602001908152602001600020805461268d90614529565b80601f01602080910402602001604051908101604052809291908181526020018280546126b990614529565b80156127065780601f106126db57610100808354040283529160200191612706565b820191906000526020600020905b8154815290600101906020018083116126e957829003601f168201915b505050505090506000612717613120565b905060008151141561272d578192505050612770565b60008251111561276257808260405160200161274a929190614d81565b60405160208183030381529060405292505050612770565b61276b84613137565b925050505b919050565b61278f82826040518060200160405280600081525061319f565b5050565b61279c82612e23565b6127db576040517f08c379a00000000000000000000000000000000000000000000000000000000081526004016127d290614e17565b60405180910390fd5b806006600084815260200190815260200160002090805190602001906128029291906137a5565b505050565b600061282a8a73ffffffffffffffffffffffffffffffffffffffff166014612b05565b90506000612909600d805480602002602001604051908101604052809291908181526020016000905b828210156128ff57838290600052602060002001805461287290614529565b80601f016020809104026020016040519081016040528092919081815260200182805461289e90614529565b80156128eb5780601f106128c0576101008083540402835291602001916128eb565b820191906000526020600020905b8154815290600101906020018083116128ce57829003601f168201915b505050505081526020019060010190612853565b50505050836131fa565b9050600081121561296957600d8290806001815401808255809150506001900390600052602060002001600090919091909150908051906020019061294f9291906137a5565b50600e600081548092919061296390614c3a565b91905055505b61297161382b565b8a816000018181525050898160200181905250888160400181905250878160600181905250868160800181905250858160a00181905250848160c0019060018111156129c0576129bf613e9c565b5b908160018111156129d4576129d3613e9c565b5b81525050600c836040516129e89190614962565b9081526020016040518091039020819080600181540180825580915050600190039060005260206000209060080201600090919091909150600082015181600001556020820151816001019080519060200190612a469291906137a5565b506040820151816002019080519060200190612a639291906137a5565b506060820151816003019080519060200190612a809291906137a5565b506080820151816004019080519060200190612a9d9291906137a5565b5060a0820151816005019080519060200190612aba9291906137a5565b5060c08201518160060160006101000a81548160ff02191690836001811115612ae657612ae5613e9c565b5b021790555060e082015181600701555050505050505050505050505050565b606060006002836002612b189190614e37565b612b2291906148d0565b67ffffffffffffffff811115612b3b57612b3a613d15565b5b6040519080825280601f01601f191660200182016040528015612b6d5781602001600182028036833780820191505090505b5090507f300000000000000000000000000000000000000000000000000000000000000081600081518110612ba557612ba4614c0b565b5b60200101907effffffffffffffffffffffffffffffffffffffffffffffffffffffffffffff1916908160001a9053507f780000000000000000000000000000000000000000000000000000000000000081600181518110612c0957612c08614c0b565b5b60200101907effffffffffffffffffffffffffffffffffffffffffffffffffffffffffffff1916908160001a90535060006001846002612c499190614e37565b612c5391906148d0565b90505b6001811115612cf3577f3031323334353637383961626364656600000000000000000000000000000000600f861660108110612c9557612c94614c0b565b5b1a60f81b828281518110612cac57612cab614c0b565b5b60200101907effffffffffffffffffffffffffffffffffffffffffffffffffffffffffffff1916908160001a905350600485901c945080612cec90614e91565b9050612c56565b5060008414612d37576040517f08c379a0000000000000000000000000000000000000000000000000000000008152600401612d2e90614f07565b60405180910390fd5b8091505092915050565b60007f80ac58cd000000000000000000000000000000000000000000000000000000007bffffffffffffffffffffffffffffffffffffffffffffffffffffffff1916827bffffffffffffffffffffffffffffffffffffffffffffffffffffffff19161480612e0c57507f5b5e139f000000000000000000000000000000000000000000000000000000007bffffffffffffffffffffffffffffffffffffffffffffffffffffffff1916827bffffffffffffffffffffffffffffffffffffffffffffffffffffffff1916145b80612e1c5750612e1b826132c0565b5b9050919050565b60008073ffffffffffffffffffffffffffffffffffffffff166002600084815260200190815260200160002060009054906101000a900473ffffffffffffffffffffffffffffffffffffffff1673ffffffffffffffffffffffffffffffffffffffff1614159050919050565b505050565b505050565b612ea38282610d13565b612f3257612ec88173ffffffffffffffffffffffffffffffffffffffff166014612b05565b612ed68360001c6020612b05565b604051602001612ee7929190614fbf565b6040516020818303038152906040526040517f08c379a0000000000000000000000000000000000000000000000000000000008152600401612f299190613ad2565b60405180910390fd5b5050565b612f3f8161332a565b6000600660008381526020019081526020016000208054612f5f90614529565b905014612f8657600660008281526020019081526020016000206000612f859190613882565b5b50565b6000612faa8473ffffffffffffffffffffffffffffffffffffffff16613447565b15613113578373ffffffffffffffffffffffffffffffffffffffff1663150b7a02612fd3611988565b8786866040518563ffffffff1660e01b8152600401612ff5949392919061504e565b602060405180830381600087803b15801561300f57600080fd5b505af192505050801561304057506040513d601f19601f8201168201806040525081019061303d91906150af565b60015b6130c3573d8060008114613070576040519150601f19603f3d011682016040523d82523d6000602084013e613075565b606091505b506000815114156130bb576040517f08c379a00000000000000000000000000000000000000000000000000000000081526004016130b290614d61565b60405180910390fd5b805181602001fd5b63150b7a0260e01b7bffffffffffffffffffffffffffffffffffffffffffffffffffffffff1916817bffffffffffffffffffffffffffffffffffffffffffffffffffffffff191614915050613118565b600190505b949350505050565b606060405180602001604052806000815250905090565b60606131428261193d565b600061314c613120565b9050600081511161316c5760405180602001604052806000815250613197565b806131768461346a565b604051602001613187929190614d81565b6040516020818303038152906040525b915050919050565b6131a983836135cb565b6131b66000848484612f89565b6131f5576040517f08c379a00000000000000000000000000000000000000000000000000000000081526004016131ec90614d61565b60405180910390fd5b505050565b600080600090505b8351811015613295578260405160200161321c9190614962565b6040516020818303038152906040528051906020012084828151811061324557613244614c0b565b5b602002602001015160405160200161325d9190614962565b60405160208183030381529060405280519060200120141561328257809150506132ba565b808061328d90614c3a565b915050613202565b507fffffffffffffffffffffffffffffffffffffffffffffffffffffffffffffffff90505b92915050565b60007f01ffc9a7000000000000000000000000000000000000000000000000000000007bffffffffffffffffffffffffffffffffffffffffffffffffffffffff1916827bffffffffffffffffffffffffffffffffffffffffffffffffffffffff1916149050919050565b600061333582610add565b905061334381600084612e8f565b61334e600083611990565b6001600360008373ffffffffffffffffffffffffffffffffffffffff1673ffffffffffffffffffffffffffffffffffffffff168152602001908152602001600020600082825461339e9190614b9b565b925050819055506002600083815260200190815260200160002060006101000a81549073ffffffffffffffffffffffffffffffffffffffff021916905581600073ffffffffffffffffffffffffffffffffffffffff168273ffffffffffffffffffffffffffffffffffffffff167fddf252ad1be2c89b69c2b068fc378daa952ba7f163c4a11628f55a4df523b3ef60405160405180910390a461344381600084612e94565b5050565b6000808273ffffffffffffffffffffffffffffffffffffffff163b119050919050565b606060008214156134b2576040518060400160405280600181526020017f300000000000000000000000000000000000000000000000000000000000000081525090506135c6565b600082905060005b600082146134e45780806134cd90614c3a565b915050600a826134dd919061510b565b91506134ba565b60008167ffffffffffffffff811115613500576134ff613d15565b5b6040519080825280601f01601f1916602001820160405280156135325781602001600182028036833780820191505090505b5090505b600085146135bf5760018261354b9190614b9b565b9150600a8561355a919061513c565b603061356691906148d0565b60f81b81838151811061357c5761357b614c0b565b5b60200101907effffffffffffffffffffffffffffffffffffffffffffffffffffffffffffff1916908160001a905350600a856135b8919061510b565b9450613536565b8093505050505b919050565b600073ffffffffffffffffffffffffffffffffffffffff168273ffffffffffffffffffffffffffffffffffffffff16141561363b576040517f08c379a0000000000000000000000000000000000000000000000000000000008152600401613632906151b9565b60405180910390fd5b61364481612e23565b15613684576040517f08c379a000000000000000000000000000000000000000000000000000000000815260040161367b90615225565b60405180910390fd5b61369060008383612e8f565b6001600360008473ffffffffffffffffffffffffffffffffffffffff1673ffffffffffffffffffffffffffffffffffffffff16815260200190815260200160002060008282546136e091906148d0565b92505081905550816002600083815260200190815260200160002060006101000a81548173ffffffffffffffffffffffffffffffffffffffff021916908373ffffffffffffffffffffffffffffffffffffffff160217905550808273ffffffffffffffffffffffffffffffffffffffff16600073ffffffffffffffffffffffffffffffffffffffff167fddf252ad1be2c89b69c2b068fc378daa952ba7f163c4a11628f55a4df523b3ef60405160405180910390a46137a160008383612e94565b5050565b8280546137b190614529565b90600052602060002090601f0160209004810192826137d3576000855561381a565b82601f106137ec57805160ff191683800117855561381a565b8280016001018555821561381a579182015b828111156138195782518255916020019190600101906137fe565b5b50905061382791906138c2565b5090565b6040518061010001604052806000815260200160608152602001606081526020016060815260200160608152602001606081526020016000600181111561387557613874613e9c565b5b8152602001600081525090565b50805461388e90614529565b6000825580601f106138a057506138bf565b601f0160209004906000526020600020908101906138be91906138c2565b5b50565b5b808211156138db5760008160009055506001016138c3565b5090565b6000604051905090565b600080fd5b600080fd5b60007fffffffff0000000000000000000000000000000000000000000000000000000082169050919050565b613928816138f3565b811461393357600080fd5b50565b6000813590506139458161391f565b92915050565b600060208284031215613961576139606138e9565b5b600061396f84828501613936565b91505092915050565b60008115159050919050565b61398d81613978565b82525050565b60006020820190506139a86000830184613984565b92915050565b600073ffffffffffffffffffffffffffffffffffffffff82169050919050565b60006139d9826139ae565b9050919050565b6139e9816139ce565b81146139f457600080fd5b50565b600081359050613a06816139e0565b92915050565b600060208284031215613a2257613a216138e9565b5b6000613a30848285016139f7565b91505092915050565b600081519050919050565b600082825260208201905092915050565b60005b83811015613a73578082015181840152602081019050613a58565b83811115613a82576000848401525b50505050565b6000601f19601f8301169050919050565b6000613aa482613a39565b613aae8185613a44565b9350613abe818560208601613a55565b613ac781613a88565b840191505092915050565b60006020820190508181036000830152613aec8184613a99565b905092915050565b6000819050919050565b613b0781613af4565b8114613b1257600080fd5b50565b600081359050613b2481613afe565b92915050565b600060208284031215613b4057613b3f6138e9565b5b6000613b4e84828501613b15565b91505092915050565b613b60816139ce565b82525050565b6000602082019050613b7b6000830184613b57565b92915050565b60008060408385031215613b9857613b976138e9565b5b6000613ba6858286016139f7565b9250506020613bb785828601613b15565b9150509250929050565b600080600060608486031215613bda57613bd96138e9565b5b6000613be8868287016139f7565b9350506020613bf9868287016139f7565b9250506040613c0a86828701613b15565b9150509250925092565b6000819050919050565b613c2781613c14565b8114613c3257600080fd5b50565b600081359050613c4481613c1e565b92915050565b600060208284031215613c6057613c5f6138e9565b5b6000613c6e84828501613c35565b91505092915050565b613c8081613c14565b82525050565b6000602082019050613c9b6000830184613c77565b92915050565b60008060408385031215613cb857613cb76138e9565b5b6000613cc685828601613c35565b9250506020613cd7858286016139f7565b9150509250929050565b613cea81613af4565b82525050565b6000602082019050613d056000830184613ce1565b92915050565b600080fd5b600080fd5b7f4e487b7100000000000000000000000000000000000000000000000000000000600052604160045260246000fd5b613d4d82613a88565b810181811067ffffffffffffffff82111715613d6c57613d6b613d15565b5b80604052505050565b6000613d7f6138df565b9050613d8b8282613d44565b919050565b600067ffffffffffffffff821115613dab57613daa613d15565b5b613db482613a88565b9050602081019050919050565b82818337600083830152505050565b6000613de3613dde84613d90565b613d75565b905082815260208101848484011115613dff57613dfe613d10565b5b613e0a848285613dc1565b509392505050565b600082601f830112613e2757613e26613d0b565b5b8135613e37848260208601613dd0565b91505092915050565b60008060408385031215613e5757613e566138e9565b5b600083013567ffffffffffffffff811115613e7557613e746138ee565b5b613e8185828601613e12565b9250506020613e9285828601613b15565b9150509250929050565b7f4e487b7100000000000000000000000000000000000000000000000000000000600052602160045260246000fd5b60028110613edc57613edb613e9c565b5b50565b6000819050613eed82613ecb565b919050565b6000613efd82613edf565b9050919050565b613f0d81613ef2565b82525050565b600061010082019050613f29600083018b613ce1565b8181036020830152613f3b818a613a99565b90508181036040830152613f4f8189613a99565b90508181036060830152613f638188613a99565b90508181036080830152613f778187613a99565b905081810360a0830152613f8b8186613a99565b9050613f9a60c0830185613f04565b613fa760e0830184613ce1565b9998505050505050505050565b613fbd81613978565b8114613fc857600080fd5b50565b600081359050613fda81613fb4565b92915050565b60008060408385031215613ff757613ff66138e9565b5b6000614005858286016139f7565b925050602061401685828601613fcb565b9150509250929050565b600067ffffffffffffffff82111561403b5761403a613d15565b5b61404482613a88565b9050602081019050919050565b600061406461405f84614020565b613d75565b9050828152602081018484840111156140805761407f613d10565b5b61408b848285613dc1565b509392505050565b600082601f8301126140a8576140a7613d0b565b5b81356140b8848260208601614051565b91505092915050565b600080600080608085870312156140db576140da6138e9565b5b60006140e9878288016139f7565b94505060206140fa878288016139f7565b935050604061410b87828801613b15565b925050606085013567ffffffffffffffff81111561412c5761412b6138ee565b5b61413887828801614093565b91505092959194509250565b600080600080600080600080610100898b031215614165576141646138e9565b5b600089013567ffffffffffffffff811115614183576141826138ee565b5b61418f8b828c01613e12565b98505060206141a08b828c016139f7565b97505060406141b18b828c01613b15565b965050606089013567ffffffffffffffff8111156141d2576141d16138ee565b5b6141de8b828c01613e12565b955050608089013567ffffffffffffffff8111156141ff576141fe6138ee565b5b61420b8b828c01613e12565b94505060a089013567ffffffffffffffff81111561422c5761422b6138ee565b5b6142388b828c01613e12565b93505060c089013567ffffffffffffffff811115614259576142586138ee565b5b6142658b828c01613e12565b92505060e089013567ffffffffffffffff811115614286576142856138ee565b5b6142928b828c01613e12565b9150509295985092959890939650565b600081519050919050565b600082825260208201905092915050565b6000819050602082019050919050565b6142d781613af4565b82525050565b600082825260208201905092915050565b60006142f982613a39565b61430381856142dd565b9350614313818560208601613a55565b61431c81613a88565b840191505092915050565b61433081613ef2565b82525050565b60006101008301600083015161434f60008601826142ce565b506020830151848203602086015261436782826142ee565b9150506040830151848203604086015261438182826142ee565b9150506060830151848203606086015261439b82826142ee565b915050608083015184820360808601526143b582826142ee565b91505060a083015184820360a08601526143cf82826142ee565b91505060c08301516143e460c0860182614327565b5060e08301516143f760e08601826142ce565b508091505092915050565b600061440e8383614336565b905092915050565b6000602082019050919050565b600061442e826142a2565b61443881856142ad565b93508360208202850161444a856142be565b8060005b8581101561448657848403895281516144678582614402565b945061447283614416565b925060208a0199505060018101905061444e565b50829750879550505050505092915050565b600060208201905081810360008301526144b28184614423565b905092915050565b600080604083850312156144d1576144d06138e9565b5b60006144df858286016139f7565b92505060206144f0858286016139f7565b9150509250929050565b7f4e487b7100000000000000000000000000000000000000000000000000000000600052602260045260246000fd5b6000600282049050600182168061454157607f821691505b60208210811415614555576145546144fa565b5b50919050565b7f4552433732313a20617070726f76616c20746f2063757272656e74206f776e6560008201527f7200000000000000000000000000000000000000000000000000000000000000602082015250565b60006145b7602183613a44565b91506145c28261455b565b604082019050919050565b600060208201905081810360008301526145e6816145aa565b9050919050565b7f4552433732313a20617070726f76652063616c6c6572206973206e6f7420746f60008201527f6b656e206f776e6572206e6f7220617070726f76656420666f7220616c6c0000602082015250565b6000614649603e83613a44565b9150614654826145ed565b604082019050919050565b600060208201905081810360008301526146788161463c565b9050919050565b7f4552433732313a2063616c6c6572206973206e6f7420746f6b656e206f776e6560008201527f72206e6f7220617070726f766564000000000000000000000000000000000000602082015250565b60006146db602e83613a44565b91506146e68261467f565b604082019050919050565b6000602082019050818103600083015261470a816146ce565b9050919050565b7f416363657373436f6e74726f6c3a2063616e206f6e6c792072656e6f756e636560008201527f20726f6c657320666f722073656c660000000000000000000000000000000000602082015250565b600061476d602f83613a44565b915061477882614711565b604082019050919050565b6000602082019050818103600083015261479c81614760565b9050919050565b7f4552433732313a20696e76616c696420746f6b656e2049440000000000000000600082015250565b60006147d9601883613a44565b91506147e4826147a3565b602082019050919050565b60006020820190508181036000830152614808816147cc565b9050919050565b7f4552433732313a2061646472657373207a65726f206973206e6f74206120766160008201527f6c6964206f776e65720000000000000000000000000000000000000000000000602082015250565b600061486b602983613a44565b91506148768261480f565b604082019050919050565b6000602082019050818103600083015261489a8161485e565b9050919050565b7f4e487b7100000000000000000000000000000000000000000000000000000000600052601160045260246000fd5b60006148db82613af4565b91506148e683613af4565b9250827fffffffffffffffffffffffffffffffffffffffffffffffffffffffffffffffff0382111561491b5761491a6148a1565b5b828201905092915050565b600081905092915050565b600061493c82613a39565b6149468185614926565b9350614956818560208601613a55565b80840191505092915050565b600061496e8284614931565b915081905092915050565b7f4f776e61626c653a206e6577206f776e657220697320746865207a65726f206160008201527f6464726573730000000000000000000000000000000000000000000000000000602082015250565b60006149d5602683613a44565b91506149e082614979565b604082019050919050565b60006020820190508181036000830152614a04816149c8565b9050919050565b7f4f776e61626c653a2063616c6c6572206973206e6f7420746865206f776e6572600082015250565b6000614a41602083613a44565b9150614a4c82614a0b565b602082019050919050565b60006020820190508181036000830152614a7081614a34565b9050919050565b7f4552433732313a207472616e736665722066726f6d20696e636f72726563742060008201527f6f776e6572000000000000000000000000000000000000000000000000000000602082015250565b6000614ad3602583613a44565b9150614ade82614a77565b604082019050919050565b60006020820190508181036000830152614b0281614ac6565b9050919050565b7f4552433732313a207472616e7366657220746f20746865207a65726f2061646460008201527f7265737300000000000000000000000000000000000000000000000000000000602082015250565b6000614b65602483613a44565b9150614b7082614b09565b604082019050919050565b60006020820190508181036000830152614b9481614b58565b9050919050565b6000614ba682613af4565b9150614bb183613af4565b925082821015614bc457614bc36148a1565b5b828203905092915050565b6000819050919050565b614bea614be582613af4565b614bcf565b82525050565b6000614bfc8284614bd9565b60208201915081905092915050565b7f4e487b7100000000000000000000000000000000000000000000000000000000600052603260045260246000fd5b6000614c4582613af4565b91507fffffffffffffffffffffffffffffffffffffffffffffffffffffffffffffffff821415614c7857614c776148a1565b5b600182019050919050565b7f4552433732313a20617070726f766520746f2063616c6c657200000000000000600082015250565b6000614cb9601983613a44565b9150614cc482614c83565b602082019050919050565b60006020820190508181036000830152614ce881614cac565b9050919050565b7f4552433732313a207472616e7366657220746f206e6f6e20455243373231526560008201527f63656976657220696d706c656d656e7465720000000000000000000000000000602082015250565b6000614d4b603283613a44565b9150614d5682614cef565b604082019050919050565b60006020820190508181036000830152614d7a81614d3e565b9050919050565b6000614d8d8285614931565b9150614d998284614931565b91508190509392505050565b7f45524337323155524953746f726167653a2055524920736574206f66206e6f6e60008201527f6578697374656e7420746f6b656e000000000000000000000000000000000000602082015250565b6000614e01602e83613a44565b9150614e0c82614da5565b604082019050919050565b60006020820190508181036000830152614e3081614df4565b9050919050565b6000614e4282613af4565b9150614e4d83613af4565b9250817fffffffffffffffffffffffffffffffffffffffffffffffffffffffffffffffff0483118215151615614e8657614e856148a1565b5b828202905092915050565b6000614e9c82613af4565b91506000821415614eb057614eaf6148a1565b5b600182039050919050565b7f537472696e67733a20686578206c656e67746820696e73756666696369656e74600082015250565b6000614ef1602083613a44565b9150614efc82614ebb565b602082019050919050565b60006020820190508181036000830152614f2081614ee4565b9050919050565b7f416363657373436f6e74726f6c3a206163636f756e7420000000000000000000600082015250565b6000614f5d601783614926565b9150614f6882614f27565b601782019050919050565b7f206973206d697373696e6720726f6c6520000000000000000000000000000000600082015250565b6000614fa9601183614926565b9150614fb482614f73565b601182019050919050565b6000614fca82614f50565b9150614fd68285614931565b9150614fe182614f9c565b9150614fed8284614931565b91508190509392505050565b600081519050919050565b600082825260208201905092915050565b600061502082614ff9565b61502a8185615004565b935061503a818560208601613a55565b61504381613a88565b840191505092915050565b60006080820190506150636000830187613b57565b6150706020830186613b57565b61507d6040830185613ce1565b818103606083015261508f8184615015565b905095945050505050565b6000815190506150a98161391f565b92915050565b6000602082840312156150c5576150c46138e9565b5b60006150d38482850161509a565b91505092915050565b7f4e487b7100000000000000000000000000000000000000000000000000000000600052601260045260246000fd5b600061511682613af4565b915061512183613af4565b925082615131576151306150dc565b5b828204905092915050565b600061514782613af4565b915061515283613af4565b925082615162576151616150dc565b5b828206905092915050565b7f4552433732313a206d696e7420746f20746865207a65726f2061646472657373600082015250565b60006151a3602083613a44565b91506151ae8261516d565b602082019050919050565b600060208201905081810360008301526151d281615196565b9050919050565b7f4552433732313a20746f6b656e20616c7265616479206d696e74656400000000600082015250565b600061520f601c83613a44565b915061521a826151d9565b602082019050919050565b6000602082019050818103600083015261523e81615202565b905091905056fea264697066735822122015d9a74d05fa06b785f2c8393d65ccc0b4221895baf196d8f1867a493f30f24464736f6c63430008090033",
  "linkReferences": {},
  "deployedLinkReferences": {}
}